:4000000000800020110000005D0200005D02000008B5054B1A6803F53F5302331A6000F07BFA00F023F900BFFA46004010B5054C237833B9044B13B10448AFF30080012397
:40004000237010BD4881FF1F000000007C220000084B10B51BB108490848AFF300800848036803B910BD074B002BFBD0BDE81040184700BF000000004C81FF1F7C220000CC
:40008000C880FF1F0000000008B500F0C7F900F049F9064A20B1137803F0C003402B01D14023137000F018FDFEE700BFFA460040F8B572B6574D0024062606FB045300214B
:4000C0009A881868013402F0CCF8082CF5D100221146514C04F1480554F8210005EB420320F0FF06C0B2024405EB4200013303300233834206D013F8037C13F802EC07F8C7
:4001000006E0F5E701311229E6D1444A444C1378192543F002031370137C424F43F0020313742378A2F5863243F040032370413A1378002643F0100313703B4B02F62E6262
:400140005968186803C2198953F80A0F11805968D83A03C21B89A2F60662A2F8063E137843F008031370314B61221A704BF21A72A3F5F0631A8006229D7083F880225222DF
:4001800003F5C0731A702A4B2A4A1B78DBB21370294B4FF4E2621A8041F2512223F8022C3B784FF4F07003F0010343EA460600F0C7FC013D06F003062BD0032EF0D11F4A6E
:4001C0004FF4807313801E4907231370482000230B708870137053711A4B02221A701A4A1A4D137843F001031370104BC1221A70174B184A1B78DBB203F007011B0911706E
:400200005370154B44221A7094E80F0007C52B80F8BDFEE780220000B022000003500140A0430040254200407E230000004800400F010049A146004022420040044000406C
:400240000640004001400040A2430040B0430040CF0100496E5800407658004008B501F0C9FF03680C2B00D1FEE7FEE780B51148114B0025C0B1A3F1100192C9224604391A
:40028000161BB74204D051F8046F42F8046BF7E7114653F8046C8C1AA64202D041F8045BF9E701381033E5E701F0AAFFFFF7ECFEFEE700BF010000006C250000104A114B65
:4002C00010B41A60104A114C1368114843F4007313600023032B98BF54F823204FEA830188BF0C4A0133302B4250F3D10A4B1A780A4B1A700A4B064A10BC1A60FFF7D8BE65
:400300000004FA050CED00E014ED00E0000000000080FF1F5D020000BC760040C080FF1F08ED00E0024B1878C0F38000704700BF2151004001BE7047024A137843F00103A2
:4003400013707047F646004038B50446084DB4F5004F05D9286800F0F3FBA4F50044F6E7034B58686043BDE8384000F0E9BB00BFCC80FF1F024B1B7A584300F0E1BB00BFEA
:40038000CC80FF1F08B500F0E3FB00BF00BF00BF00BF00BF00BF00BF00BF00BF00BF00BF00BF00BF00BF00BF00BF064A13889BB243F0040313801388BFF36F8FBDE808401B
:4003C00000F0CABB00480040054A00F01F00126800F1100352F8230042F82310704700BF08ED00E000F01F0000F16040490100F56440C9B201707047064A137843F00103C7
:400400001370FF2302F8903C02F8503C024B40221A7070479D6400402D64004008B504490B781BB9FFF7E8FF01230B7008BD00BF6481FF1F00470023014422B1013A885CC4
:400440000344DBB2F9E71846704701380B284FD8DFE800F0060C12181E24302A363C42480902C1F57F3101F5707147E00902C1F57F3101F2C13144E00902C1F57F3101F248
:40048000C53136E00902C1F57F3101F2C93138E00902C1F57F3101F574712FE00902C1F57F3101F2D13129E00902C1F57F3101F2D6311EE00902C1F57F3101F2D23118E028
:4004C0000902C1F57F3101F5757112E00902C1F57F3101F5767114E00902C1F57F3101F577710BE00902C1F57F3101F5787108E000210B78487843EA002070470878C0B2AF
:4005000070470B784A788878000440EA02201843CB7840EA0360704710B50B4A137803F0C003802B0ED10024147021460220FFF78CFF38B121460220FFF787FFBDE8104013
:40054000FFF778BF10BD00BFFA460040F8B5014606460320FFF779FF314605460420FFF774FF013500EB052531460320FFF76DFF0024274601300002854209D910F8013B2A
:400580005A1ED2B2FD2A1C4498BF0127E4B2F3E731460320FFF759FF114B01309D424FEA00204FEAD00014BFED084FF40045A84206D200F190431B7801301C44E4B2F6E7A6
:4005C00031460120FFF741FF6442E4B2844204D1002F0CBF06200020F8BD0620F8BD00BFC0FF03002DE9F04FADF51F7D074600F057FB10B10020FFF79DFE00F0B1FA62B6BE
:40060000002F18BF3B464FF000052E4608BFFF2301934FF00A08019B02AA4FF4967108A800F0CEFA1FB108F1FF385FFA88F8B8F1000F02D00028EED101E0002845D1BDF895
:400640000820062A40F2EB819DF82030012B40F0E681BDF82240E31D934200F2DE81B3F5967F00F2DA8108AB23449B79172B40F0D681231D9BB200220DF11F002BB1C15CD9
:40068000013B0A4492B29BB2F8E708AB191948790B79524243EA002392B2934240F0C1811AE05B429BB209AA53541B0A0DF12502535417220DF126035A54073196230DF17B
:4006C0000A0289B208A800F05CFA002FA3D0002E00F0F38101269EE79DF821309DF824B0A3F13102142A00F21081DFE812F0150061000E018600C2000E01C600D80086003D
:40070000E80002010E010E010E010E010E010E010E010E010E012500002E00F08081002C40F07D812046FFF711FFB0FA80F040098DF82400314656E1002E00F07081032C45
:4007400004D040F223139C4240F06981032CBDF8259005D0E21E0DF1270153A801F076FDABF140023F2A07D809F1806202F5006210011024802209E0BBF1030F00F2EF8008
:4007800009EB0B224FF48074100222464A4540F2E880002153AA10F801E011F802C0F44540F0F58001311FFA81FE7445F3D8DAE0002E00F03481012C40F03181BBF1030FE6
:4007C00000F22D81BF4B1B681B68C3F30742934502D1C3F3072303E08CBF00234FF480738DF824301B0A8DF825300024FF238DF826308DF827400421F5E0342B12D1002EE9
:4008000000F00D81032C40F00A81ABF140033F2B8CBF4FF4907510252A46002153A801F020FD05E0002E00F0FA80022C40F2F78053AB033C224658190DF1270101F006FD21
:40084000ABF140032C443F2BA4B204D800F0BCFA8022102303E04FF480724FF49073A34240F09780BDF82550AA4200F29680012677E0002E00F0D3801AE1002E00F0CF8013
:4008800004EB050BBBF5967F00F3C78053AB5819224609A901F0DAFC1FFA8BF5C5E0002C40F0BD80884A05AB92E8030009AA83E8030082E8030025460126082193E0002E2A
:4008C00000F0AD80032C40F0AA80ABF140023F2ABDF8259008D800F077FAB9F17F0F4FEA091140F2A9803CE0B9F1FF0F40F2B08037E00020FFF72AFE10B9744A8023137042
:4009000000F03AF9FFF718FD89E0714A1268002A64D0002E65D0ADF80E404FF0000B09AC05A98DF80C300494CDF814B0CDF818B0079403A89047BDF81810B1F5937F02D394
:40094000079BA34205D0079B03B929B99DF8144049E00E24594646E00E24194643E0092440E00A243EE0BBF1030F5ED8A5425CD90BF5103B131909EB0B2B03F12002C3EB10
:400980004B1B1BF8030013F8011B88424BD0022428E00025012603241EE0BBF13F0F0ED8484A05EB0B21126889B21068C0F30F2210F0FF0F1CBF013292B28A4238D82946C6
:4009C00053AA584600F09AF900280CBF00240A24FFF7D8FC00250126294604E00524114601E00524002101238DF820300A1D0B0A8DF82330ADF80A108DF821408DF8221017
:400A000092B200230DF11F00002A3FF44AAE845C013A23449BB292B2F6E70324E2E70424E0E70824DEE79A42ABD100242146DAE7002501260A24CFE710222648FFF7FBFCBC
:400A40008246CAF100028DF8242000240121CAE74FEA0B2404EB09014FF4807209020020FFF7E9FCBBF13F0F8246EAD804F110744C4464010021085D013100EB0A022029AB
:400A80005FFA82FAF7D1BBF1030FDAD1B9F1FF0FD7D100210520FFF7D8FCC0EB0A00C4B200210620FFF7D1FC201A5FFA80FAC8E70FB93D46AFE500250CE60DF51F7DBDE896
:400AC000F08F00BFDC80FF1F94230000FA4600406881FF1F0080004038B50020FFF736FD154C0021236800281A68084614BF06250025FFF7A0FC63681B78181A00F0FF00D1
:400B0000834202D123681B6813B90020FFF712FC0A4C237803F0C003402B00D01DB100202070FFF75FFD3220FFF75CFD80232370BDE83840FFF700BCDC80FF1FFA460040CD
:400B40000230800803D000BF01380046FCD17047EFF3108072B6704780F31088704700BF08B562B60221002000F02CFB014B01221A7008BD6C81FF1F00F062BB012000F03E
:400B800023BC70B503EB83030E4615460146402202205C0000F0DAFB022000F0BBFB30B92CB10120013CFFF7CFFBA4B2F4E7022000F0B0FB10B12E80002070BD102070BD6F
:400BC0002DE9F84303EB83035C00224B17461A78804689461E46A2B1254600F089FB30B92DB10120013DFFF7AFFBADB2F5E700F07FFBA0B100F082FBFFF7C0FF00233370A9
:400C00000DE000F07BFB50B100F072FB38B1FFF7B5FF04E054B1FFF797FB013CA4B2012000F078FB01284FF00100F3D100F072FB01280AD14A46402A28BF4022414600F0A0
:400C4000D7FB38800020BDE8F88300233B801020BDE8F8836C81FF1F38B500F0DDF800F07BF9C0B900F0B2F90728044610D10B4D2A780A4B910703D40120FFF77BFBF7E7C4
:400C80001A78920704D51B789B0814BF0724002400F082F900E00424204638BD2247004070B5FFF7D9FF044610BB00F0B5F800F053F9E0B9012000F035F907280AD10D4D44
:400CC00002210D4800F0BAF802280A4E05D02B789B07F5D54FF0FF3406E033789A0703D40120FFF747FBF8E700F056F900E00424204670BD224700407B81FF1F41282DE9A5
:400D0000F04105460E46174698460AD8441F3A2C8CBF002401243F2804D8B1F5807F30D806E00124812E28BF0124B8F1100F28D13FB334BB00F010F928BB43463A463146B5
:400D4000284600F099F8072834D1DFF8748098F800201B4B12F0020F1F4603D10120FFF709FBF4E71A78900706D51B789B080CD002E01A78920719D44FF0FF3400F00CF9B6
:400D80001AE0012418E0042416E00E4A314653782846127800F0A6F807280BD13A78084B9107E6D40120FFF7E5FAF7E71B789B08E4D0E1E70446E1E72046BDE8F08100BFA9
:400DC000224700407B81FF1F08B5FFF7C1FE0F4A137843F008031370137C43F0080313740B4BC8221A700B4A137843F010031370137C43F01003137402F5557213789B060C
:400E0000FCD5BDE80840FFF7A7BE00BFA043004001470040AC43004008B5FFF799FE064A137843F008031370137C43F008031374BDE80840FFF790BEA04300402DE9F0412B
:400E40000E464B1E0A4FDFF82C80451EC418A5420BD03B78DB0703D40120FFF78BFAF8E798F8003005F8013FF1E73046BDE8F081224700402047004070B5184D2C78A60765
:400E800027D5174CB6262670D5262670022626702D78AD071FD416462070B51AADB2AB4203D916F8015B2570F7E7B3F5807F01D0072070BD3F28FBD800F5103001EB0021BE
:400EC000490100235A5C0133D2B2202B2270F9D1EEE7042070BD092070BD00BF224700402047004070B50D4D2C78A60712D50C4CB6262670D8262670052626702D78AD07B6
:400F00000AD42070080AC9B22070217022702370072070BD042070BD092070BD22470040204700400A4A137899070CD5094BB6211970E12119700E2119701278920704D4D3
:400F4000187007207047042070470920704700BF224700402047004038B5FFF7F9FD0C4A147874B901250B4915700B682B400AD00B6823F001030B6000BF00BF00BF5560BB
:400F800002E0042400E01C46FFF7E6FD204638BD7081FF1F0400084010B5FFF7D9FD094B00215A681970012A08D1074C226842F00102226000BF00BF00BF5960BDE8104082
:400FC000FFF7CABD7081FF1F04000840074B1B789B0708D5064BB6221A70E0221A700D221A70072070470420704700BF2247004020470040F8B5FFF7ABFD3C4A0125137873
:40100000022743F001031370137C394C43F001031374384B02F5E3521D700B3203F8947C1378064603F07F0313700020FFF7A2F92378314A03F0F90323701378284603F073
:40104000DF03137023782B432370FFF793F92820FFF790F9294B38461A7802F07F021A701A7802F0BF021A7023783B432370FFF781F92378304643F004032370204B00244D
:401080001C705C70FFF768FD07211720FFF7AAF91C491720FFF798F907211820FFF7A2F919491820FFF790F907211520FFF79AF916491520FFF788F920460721FFF792F958
:4010C00013492046FFF780F928460721FFF78AF910492846FFF778F907210C20FFF782F9BDE8F8400C490C20FFF76EB9A5430040944300409D60004012600040F85100408B
:4011000084600040A718000009170000A51800004918000075180000A11A000008B51C4B01221A701B4B18701B48002303701B4803701B4803701B4803701B4803701B48D3
:4011400003701B4803701B4B4FF4000018604FF0807018604FF4001018601A6002221A60154B19B91A7802F0FE0202E01A7842F001021A70114B03221A70802203F8202C9E
:401180000120FFF7DDFC0E4B04221A7008BD00BF1082FF1F9081FF1F9681FF1F9481FF1F9581FF1F9181FF1F8081FF1F9381FF1F0882FF1F00E100E00960004028600040DC
:4011C0001260004070B5074C054623780E461BB9FFF710FF0123237031462846BDE87040FFF79CBF7881FF1F0C4B01221A700C4A002313700B4A13700B4A13700B4A1370D1
:401200000B4A13700B4A13700B4A13700B4B03221A70802203F8202C704700BF1082FF1F9681FF1F9481FF1F9581FF1F9181FF1F8081FF1F9381FF1F0882FF1F2860004085
:4012400008B5FFF785FC204A137803F07F031370937A03F0FB039372A2F5E352033A137803F0FE031370137C03F0FE031374174B1A7842F080021A701A7842F040021A7073
:40128000FFF76AFC124B4FF400021A604FF080721A604FF400121A6001221A6002221A6000F07AFF0B4B4FF480521A600A4A002313700A4A13700A4A13700A4A13700A4AE0
:4012C00013700A4A137008BD08600040F851004080E100E080E200E09481FF1F9581FF1F9181FF1F8081FF1F9381FF1F7881FF1F014B1878704700BF9581FF1F044B1A78B5
:4013000002F0FF001AB118780022C0B21A7070479481FF1F024A0C2303FB0020407870479C81FF1F431E072B0CD8074A064B00010344805C5B7800F00F0043EA0020023880
:4013400080B2704700207047FC5F0040431E072BF0B531D8194B0C2505FB0035EC88184FA4B2C4F50074A2424FF00C0404FB003488BFEA88E67884BFC2F5007292B2104C20
:4013800046EA12260501EE552C44D6B2667041B90C2202FB0030002343704379DBB2A370F0BD0E46074F2F44751AADB2AA42EFD916F8015B3D72F7E7F0BD00BF9C81FF1F1D
:4013C000FC5F004070600040431E072B0AD8064A0C2303FB002300225A705A79034BD2B200011A54704700BF9C81FF1FFE5F004038B505461446D1B1431E072B19D8FFF751
:4014000091FFA04203D22846FFF78CFF04460A4609482B011844531A9BB29C4203D9037A02F8013BF7E72846FFF7CEFF02E00C4600E00024204638BD7060004030B51A4AE1
:401440001A491B4D0878138803449BB21380194A00231488D8B2A4B27CB1082B0CD050680078C0B2E85450680133013050601088013880B21080ECE718460B780E4C082BA2
:401480000E4A00D040B10E4D2B7883F080032B700F232370022301E0022323701370094B1870087030BD00BF0C82FF1F0882FF1F006000408481FF1F8181FF1F9681FF1F12
:4014C0009281FF1F0982FF1F074B02221A70074B80221A70064B0F221A70064A00231370054A0120137070479681FF1F9281FF1F8181FF1F0882FF1F0982FF1F30B5164BCB
:4015000016491B780A8803F00F03023BDBB21A4492B20A80124C134A0020118889B279B173B15568215C013BC9B229705168DBB20131516011880130013989B21180ECE7D9
:40154000094A1370094A137883F080031370084B0B221A7030BD00BF296000400C82FF1F006000408481FF1F0982FF1F9281FF1F8181FF1F064A06231370064A0120137066
:40158000054B80221A70054B00221A70704700BF9681FF1F8181FF1F9281FF1F0982FF1F054B9A683AB19A68044910709A680988518000229A6070478481FF1F0C82FF1FFC
:4015C00008B5124B1A78D2B21A701B78DBB21A0602D50F4A137008BD0220FFF7E1FF0D4B1B7803F06003202B05D0402B06D043B900F084FC04E000F0D7FD01E000F0B6FD47
:4016000010B9034B03221A7008BD00BF286000408181FF1F0060004008B5084A084B0120197813880B449BB21380064B00221A70FFF7B6FF044B03221A7008BD0C82FF1FE3
:401640000882FF1F9681FF1F8181FF1F08B50C4B1B78DBB2042B07D0062B09D0022B0DD1BDE80840FFF7D8BFBDE80840FFF746BF0320FFF795FF034B03221A7008BD00BF8E
:401680009681FF1F8181FF1F08B5054B002201201A70FFF785FF034B03221A7008BD00BF9681FF1F8181FF1F08B50A4B1A7832B11A78094942F080020A7000221A70074B14
:4016C000002201201A70FFF76BFF054B03221A7008BD00BF8081FF1F086000409681FF1F8181FF1F074B1B78DBB2042B05D0062B05D0022B05D1FFF7A1BEFFF7C5BFFFF7DA
:40170000D3BF70479681FF1F38B51D4C2378DBB2DD0634D518060AD503F00F03012B2ED1FFF74EFF174B1B78190609D538BD5A0602D5FFF7D7FF03E09D0620D5FFF786FF71
:4017400023781B061BD4104B1A78104B1B7813430F4A13701278934211D10A4A0849154613782078DBB2000605D41378DBB20B700B7803F00F0328788342F1D138BD38BDB5
:40178000286000408181FF1F9281FF1F0982FF1F29600040054A00231380054A916819B191680B7092685380704700BF0C82FF1F8481FF1F0E4808B503889BB213B9FFF754
:4017C00083FE13E00B4B02221A700B4B00221A70FFF7E0FF094AD1799379028843EA012392B2934238BF0380FFF728FE012008BD8481FF1F9681FF1F9281FF1F0060004058
:4018000008B50C4B04221A700B4B80221A70FFF7C1FF0A4A0120D179937943EA012308490A8892B2934238BF0B80064B0B221A7008BD00BF9681FF1F9281FF1F0060004080
:401840008481FF1F8181FF1F084B01221A700F3B9B7C074B1A7B02F00302012A1EBFDA7B82F08002DA7301225A7370470B6000409C81FF1F094B02221A700F3B93F8223092
:40188000074B1A7E02F00302012A1EBFDA7E82F08002DA7601225A76704700BF0B6000409C81FF1F7047FFF79FBC000008B50B4B18780138C0B200F035F9094B09491B79A6
:4018C000DBB200EBC3004269CB5C02EBC3035B68054A596A0B781380516008BD9581FF1F006000408281FF1F8481FF1F08B50D4B18780138C0B200F015F90B4B0B491B7923
:40190000DBB200EBC3004269CB5C02EBC3035B68DB69597813F8022B42EA012204490A804B6008BD9581FF1F006000408281FF1F8481FF1F38B5174C00232380164B187822
:401940000138C0B200F0EEF8144AD3781179DBB2F1B913490978CDB2591E022918D8416903F1005301EBC5014968013B927801EBC30011F83330D2B2934209D30C235343DF
:401980004168CA185068CB5A606023809368A36038BD00BF8481FF1F9581FF1F006000408281FF1F10B5394B1A791978D2B211F0800F194632D05B78013B052B63D8DFE86F
:4019C00003F0101826626203CB78212B02D1FFF76DFF08E02D4BDB78222B54D1FFF786FF01E0FFF7A7FF2A4B1B889BB2002B4AD009E0002A47D18B78002B44D1244B012254
:401A00001A80244A5A60BDE81040FFF7D3BE002A39D11F4B01221A801F4AF3E75978C9B20A290DD00B2922D009292CD1FFF782FF174B1B889BB233B3BDE81040FFF7E0BEE1
:401A40000ABB9A7802F0FF01EAB9DB78114ADBB21370124B14781878844201D219700EE0197801290BD91278D2B21A7007E052B99A78012A07D89B78074ADBB21370BDE855
:401A80001040FFF777BD002010BD00BF006000408481FF1F0E82FF1F1082FF1F0F82FF1F00F07ABB2DE9F0411A4D01222E460C2080274FF0080E184B00FB025C1401234466
:401AC000187016499CF805802144B8F1000F07D09CF8044024064CBF887081F802E000E08F7000FB0261CC880132E4B29C71CC88092AC4F30724DC71CC88E4B21C71C988AD
:401B0000C1F307215971D6D1054BFF221A70BDE8F08100BF9C81FF1F70600040FC5F00400A600040064B074A1B7802EBC30253681A7C824286BF03EBC0035869002070476E
:401B40009081FF1FD82300002DE9F84F424B1A78002A7ED01878414D0138C0B2FFF7E2FFA8463F4AC3681478007ADFF800C1E4B203EBC0000C2600274FF0010E834268D07F
:401B80001A78A24263D11CF80420597891425ED19A7893F8039002F07F0206FB02FA05EB0A01CF7093F802B009F0030981F804B093F803B005F80AB0B3F804A0A1F808A0A2
:401BC00093F902A0BAF1000F0BDAB9F1010F0CBF4FF007094FF00D0981F8059081F801E009E0B9F1010F0CBF4FF005094FF0090981F805904F704FEA02191A4906FB028272
:401C0000494481F802E0B2F808A0CAF3072A81F800A0B2F808A05FFA8AFA81F801A0B2F806A011495FFA8AFA494481F806A0B2F80690C9F3072981F80790B2F806905FFA12
:401C400089F981F80490D288C2F307224A71083394E7BDE8F88F00BF9581FF1F9C81FF1F9181FF1FFC5F0040706000408281FF1F08B5064B18780138C0B2FFF753FF20B174
:401C800043681B7900EBC300406908BD9581FF1F00212DE9F84F0B464E4E0C2707FB01F401313219092933554FF000059370494CD3701381937253705371EFD118B1464B70
:401CC0001D70464B1D70464B1A78002A7FD0187801250138C0B2FFF725FFA8464368DFF8F8E0DB790C2713F0400F3E4B4FF0000C1A7814BF42F0010202F0FE021A70027A9B
:401D0000D20007FB0541C36803EB02094B4531D093F802A00AF07F06AE4229D10E89B3F804B0B6B25E4538BFA1F808B01E7893F801B01EF80660B3451AD181F804A0DE7851
:401D40000E7093F902A0DE78BAF1000F06F0030607DA012E0CBF07260D264E7181F8018006E0012E0CBF052609264E7181F801C00833CBE70135092DC3D1C1680A328B1C88
:401D80000A440C200833934209D013F8081C13F80A5C01F07F0100FB01418D72F2E7FFF767FF114B0121186000230C2000FB0142D3801289013113449BB203F001021344AA
:401DC00009299BB2F2D1BDE8F84FFFF76BBEBDE8F88F00BF9C81FF1F8281FF1F0A82FF1F9581FF1F9381FF1F9881FF1F114B1B7903F07F035A1E072A19D80F490C2202FB86
:401E0000031291781B0141F0010191700021D170517841F002015170127912F0800F074A1A4414BF8D2389239370FFF7A3BB0020704700BF006000409C81FF1FFC5F0040B7
:401E400030B4194B1A7902F07F02531E072B27D8164B0C2404FB02339978154D01F0FE0199700021D97029461201505D114400F07F0050555A7802F0FD025A701A795B784C
:401E8000120605D5012B01D18C7006E00D2303E0012B0CBF082309238B7030BCFFF76ABB002030BC704700BF006000409C81FF1FFC5F004010B50D4B0D4C21791878C9B2DA
:401EC0000138C0B2FFF72EFE43681B798B4201D2012909D8074A0848535CDBB24354A3780120DBB2535410BD002010BD9581FF1F006000408281FF1F0A82FF1F38B5894A2E
:401F0000894913780020DBB20880180640F18C8050780A2800F20481DFE810F05B00020102010201020102010B0002017C0002018000D3787B48012B09D17C4B1A787C4BD1
:401F400003EBC2035B685B684B60122310E0C378022B12D18078FFF7E5FD002800F0E08043684B604B68DA784B689B7843EA02230B80BDE83840FFF71DBCC378032B24D17D
:401F80006C4B00228478D5B2A54210D3654A9078694AEE2808BF1346624A907870B1674C9078247C664A844208BF134606E01C780132002CEAD01C782344E3E71A78002A81
:401FC00000F0AE801A780A8018E0BDE8384000F0EBB813F0030313D0022B40F0A1800B80504B0C201B7903F07F02564B00FB02339A78554BD2B21A7000225A704B60B8E774
:4020000002220A80514A10784F4AC0B2107053704A60AEE701230B804D4BEFE701230B8013794C4A1344E9E7517801390A2977D8DFE801F037764F76067676760A76200076
:402040009378454ADBB25AE0937803F0FF0153B93F4B1A7891425FD01970404B01201870FFF716FE58E0481EC0B2FFF75BFD0028EED155E0FFF71EFF002851D0294A384946
:4020800013791279DBB2D2B20A70364A3149D25CCB5C9A4240D0314B01221A70FFF754FD3AE003F00303012B2BD009D3022B37D11C4B9B78002B33D1BDE83840FFF7C0BE4E
:4020C000184B9B78012B2BD1204A137803F0FD0315E003F00303012B13D008D3022B1FD1104B9B78E3B9BDE83840FFF77FBE0D4B9B78012B14D1154A137843F002031370EA
:402100000AE0084B1A795AB998781B791649DBB2CA5C22EA0002CA54BDE83840FFF72ABA002038BD006000408481FF1F9081FF1FD8230000A6240000C423000022250000E9
:402140009C2400009C81FF1F7981FF1F9381FF1F9581FF1F8281FF1F8081FF1F9481FF1F9181FF1F0A82FF1F9781FF1F074B1A78120609D55B78012B06D1054B054A5A605A
:4021800012781A80FFF716BB00207047006000408481FF1F9C230000024B1878C0F38010704700BF8F4500400F4A137803F00303012B0AD0022B0DD113790C2103F07F0216
:4021C0000A4B01FB02339B7A00E01379DBB2012B08D800E00023064A1268D35C032B01D1FFF7E0BB00207047006000409C81FF1F9881FF1F014B1868704700BF4481FF1FA4
:402200000E4B70B51E460E4C0025E41AA410A54204D056F8253098470135F8E700F08CF9084B094C1E46E41AA4100025A54204D056F8253098470135F8E770BD44250000F9
:4022400044250000442500004C25000010B5431E0A44914204D011F8014B03F8014FF8E710BD03460244934202D003F8011BFAE77047000000260000BB00000000000000EE
:40228000005100402000305100404000C0510040100000000140001000140140000800400140000A004C014000020050014020000145004002520040010B01401B0C0140C3
:4022C0000A0D014001170140011901400340014002410140024201400243014002450140024601400347014003480140024C014002500140015101407E0210027C40B440A0
:402300008601A601B001B820C020C105C501C720C821C9FFCAFFCBFFCDA0CF04D018D804DA04DF01E040E2C0E440E540E6C0E8C0EAC0ECC0EEC000041020184440044822F2
:402340005002C004C404D004D208EE0AEE0A33803640CC30A640A780A640A780A640A7805704D402B704E80208080F40C20CAE40AF80EE50AC08AF4000010E01000A40003A
:40238000000000000000C0000600000602000200000000006910162E003C0101280000000001040001000000000000000001435955534200000030303030310000000000AC
:4023C0000000000012034D005300460054003100300030000100000001000000E02300000100000022250000000000000000000001000000F823000001000000F924000076
:40240000020000001A240000010000002C240000000000001824000003000000010340000300000082034000030000000100000034240000000000006824000000000000D8
:402440005C24000000000000000000000100000074240000010000000B250000410000005782FF1F9882FF1F410000001682FF1F1282FF1F240005010900A1000900A1007B
:402480000900150025FF7508954091020900150025FF750895408102C0C000000A033000300030003100040309042C0343007900700072006500730073002000530065008C
:4024C0006D00690063006F006E0064007500630074006F0072002203500053006F0043003300200042006F006F0074006C006F006100640065007200000902290001010225
:40250000800A09040000020300000209211101000122240007050103400001070582034000011201000200000008B4041DB701300102800143000000F8B500BFF8BC08BCD2
:402540009E46704751000000BD020000F8B500BFF8BC08BC9E4670472D00000070250000C880FF1F800000005801000000000000000000000000C05D80BB000030000000A8
:40258000006CDC0274220000782200000000000000000000000000000000000000000000000000000000000000000000342500000000000000000000000000000000000048
:4025C0000000000000000000000000000000000000000000000000000000000000000000000000000000000000000000E480FF1F0000000000000000000000000000000059
:40260000000000000000000000000000000000000000000000000000000000000000000000000000000000000000000000000000000000000000000000000000000000009A
:40264000000000000000000000000000000000000000000000000000000000000000000000000000000000000000000000000000000000000000000000000000000000005A
:40268000000000000000000000000000000000000000000000000000000000000000000000000000000000000000000000000000000000000000000000000000000000001A
:4026C00000000000000000000000000000000000000000000000000000000000000000000000000000000000000000000000000000000000000000000000000000000000DA
:404000000080002011400000455000004550000008B501F035F8000010B5054C237833B9044B13B10448AFF300800123237010BD6081FF1F00000000F0780000084B10B569
:404040001BB108490848AFF300800848036803B910BD074B002BFBD0BDE81040184700BF000000006481FF1FF0780000C880FF1F000000000A4A0B4B116801310B40002B76
:40408000BEBF03F1FF3363F03F030133136011685368994202BF024B01221A72704700BF8081FF1F3F0000800A4A0B4B516801310B40002BBEBF03F1FF3363F03F0301338A
:4040C000536051681368994202BF024B01221A72704700BF8081FF1F3F000080114BDA68196919B901221A75597514E09969521A19698A4294BF587D00201875187D09490F
:4041000008B1002204E0086982428CBF002201224A75DA689A611B7D13B1002002F080B9704700BF8081FF1F10B5C4B2204601F069F90128FAD110BD08B572B60F4B0F4977
:40414000DA680132DA60DA690132C82A08BF0022DA611A6AD8690132A72A08BF00220A621B6A002B0CBF02230023002814BF184643F0010002F0D8FB62B608BD8081FF1FD5
:4041800038B50446C5B2284602F0C2F8062002F0A7FD44F00200C0B202F0BAF8062002F09FFD284602F0B4F8BDE83840062002F081BD10B5642402F0A5F828B9FFF7E0FF6A
:4041C000013CF8D1204610BD012010BD70B5C4B2054620460E4601F015F9012805D0204601F02EFA2846FFF79FFF204601F012F9314605460246204601F0CEF9204601F099
:4042000001F90028FAD1284670BD000038B5044D0024285D013402F00BFD402CF9D138BDA481FF1F08B502F0FBF9002002F004FA02F016FA02F020FA80B208BD10B50446AB
:40424000012002F07DF8642002F034FDFFF7EAFF2080002002F074F8642002F02BFDFFF7E1FF608010BD08B502F006FB002002F00FFB02F021FB02F02BFB80B208BD10B543
:404280000446FFF796FF322002F014FDFFF7EBFF20800120FFF774FF322002F00BFDFFF7E2FF608010BD0FB400B593B014AB53F8042B402102A8019302F002FF02A802F0D8
:4042C000BCF802F0C6F813B05DF804EB04B0704710B5044601780648FFF7E5FF0420FFF723FF62782146BDE81040042001F0E2B80679000007B50023ADF804308DF8060055
:40430000032301A88DF80530FFF7E2FF03B05DF804FB000010B5074C94F8643043B1002001F0EAFF002002F081F8002384F8643010BD00BF8081FF1F38B5104D837895F8B5
:40434000672004469A4204D0FFF7E4FF002385F86A302368C5F865302279094B1A71A378002B14BF0220012002F060F8E07802F0D5FA2079BDE8384002F0DCBA8081FF1F36
:40438000E581FF1F38B50D4C94F8645065B904F16500FFF7D1FF012001F0AEFF4FF47A7002F088FC84F86A50E368E366012384F86430BDE8384002F0BBBC00BF8081FF1FF1
:4043C000F8B5214C0546FFF7DDFF94F86A3003B15DB91E48FFF767FFFFF7EBFE0120002384F86A00236702F07BFC2A46216F1848FFF759FF144E0027236F9D4216D001F059
:4044000081FF00B13767236F9D4205DD0120FFF7B7FE336F013305E005DA0020FFF7B0FE336F013B336702F083FCE5E7322002F041FC2A2DCCBF0020012002F081FABDE8C5
:40444000F8400448FFF72FBF8081FF1F137900001A790000377900002DE9F04F99B062B602F0D0FC9F49042002F0F4FC9E4801F055FF9E4801F086FF9D4801F0B3FF02F083
:404480006FF902F041F8002001F0D0FF01F0D4FF0221002000F06CFF964C012001F0E4F8002384F86730FFF76DFFFFF782FE84F87400FFF72FFF012384F86730FFF762FFA7
:4044C000FFF777FE84F87500FFF724FF8A4B94F874008A4994F875202546002A14BF0A461A46002808BF19468548FFF7DCFE0321084602F0FDFB264602F01AFC94F864308B
:4045000043B1EA6EEB689B1A41F28832934201D9FFF700FF00F064FF18B97A48FFF7C3FE04E000F063FF0028F7D10BE000F058FF10B902F0FDFBF9E77348FFF7B4FE032088
:4045400001F07EF8032000F05DFF0128D4D16F48FFF7F2FE6E490320FFF738FE94F876106C48FFF7A0FE94F87630023B162B00F2EC83DFE813F01700EA032000EA03260088
:40458000EA035200EA037800EA03DB00EA03C301EA030A03EA032E03EA033503EA034C03EA03D60303238DF820308DF821300F238DF82230B1E394F87800FFF701FF564B96
:4045C00021E340F2DC57FFF7DDFE00232375E068227D02F0FF012AB9EB681B1ABB42F7DD0B4611E083B10022174696F87810F068277594F814E0BEF1000F02D1EB681B1A19
:40460000F7E701329142F3DA07228DF8202004228DF82120ADF822307FE30220FFF784FD4FF000080DF1200A02F082FB4FF480790027C9EB0803DA1907F80A200137402F3A
:40464000F9D10220FFF770FD3A465146022000F031FFB9F10109EBD108F10108B8F1400FE2D12E4B38E04FF0010A4FF000080DF1200B02F05DFB4FF0000959460120FFF7E2
:40468000A5FD08EB090300270493049B1BF807203B44DBB29A4209D08DE80C0041463B464A461F48FFF7FFFD4FF0000A0137402FEBD109F10109B9F5807FDED108F1010881
:4046C000B8F1400FD5D151461648FFF7ECFDBAF1000F00F01B81144B1B8807A8ADF81C301CE300BF39410000DD40000075400000A94000008081FF1F4979000045790000CE
:404700004C7900006479000077790000E581FF1FF681FF1F81790000F4780000F678000090790000AC790000F8780000206FFFF747FE94F8780001F003FE94F8780001F0A7
:40474000E7FD02F029FCB94BDFF8FC821A78002702F0FB021A701A7842F001021A701A7802F0FE021A701A7802F0FE021A7002F017FC0220FFF7D8FC012141F6FF734FF447
:404780008042084601F0E2FD84F8B60002F036FA08F807000137402FF8D1DFF8B0A200270AF195091FFA89F80137402F14BF3A4600221AF8010F2244062392F824204021CF
:4047C00002F050FA424646F240419AF8000002F05BFA08F14008402F1FFA88F8E4D196F8793053B196F87C30336100233375237D002BFCD000233375336100234FF0FF3208
:40480000236062602372236894F8B600234493F8241002F0ABF994F8B60002F069F9012194F8B60002F03CF92368002BFCD0002398467360D6F80CA0012702F079FAE3684C
:40484000B4F87A20CAEB030393420DD367B1042195F8B60002F096F994F8B60002F0A2F90028F9D107463072237AFBB96A682B689A4202D1002FE0D118E00220FFF754FC2C
:404880006968402209EB8111022000F013FE6A68674B01321340002BBEBF03F1FF3363F03F03013308F101086360C6E70220277AFFF73AFC00221146022000F0FBFD022075
:4048C000FFF732FCFFB2FFF7A1FC002001F020FD37B15848FFF7E7FC0220FFF70BFD06E0554B08A81B88ADF82030FFF7F1FC227D4146237A5148FFF7D6FC29E25048FFF733
:40490000D2FCD4F87A7017F03F0701D003201DE2286FFFF755FD95F8780001F011FD95F8780001F0F5FC012001F09CFD02F034FB444BDFF814811A7842F004021A701A783C
:4049400042F001021A701A7802F0FE021A701A7802F0FE021A7002F023FB01214FF4804341F6FF72084601F021FD85F8B60002F045F908F807000137402FF8D1DFF8CC9012
:40498000002709F195031FFA83F804930137402F14BF3A46002219F8010F2244052392F82420402102F05EF9414646F2475299F8000002F069F908F14008402F1FFA88F84A
:4049C000E4D100274FF0FF33376098467360BB463B46D6F87A9037725FEA99190CBF4FF0010A4FF0000A2168114A01310A40002ABCBF02F1FF3262F03F026068B8BF013298
:404A000082426FD02BB1227A002A7AD12A7D002A77D12068049A059302EB8010BAF1000F16D040223F2102F017FB1CE0906400403F000080B6790000FA780000D0790000F3
:404A4000E379000097650040A481FF1FA381FF1F014601370120FFF7B9FBC7EB0903D3F1000A4AEB030A2168BD4A01310A40002ABEBF02F1FF3262F03F0201322260626818
:404A8000059B01322ED12A683F2A2BD14FF00008C5F8048001F0B8FC85F808806B6895F8B6002B4493F8241002F060F895F8B60002F01EF8012195F8B60001F0F1FF95F84F
:404AC0007E302B6185F81480237D002BFCD04FF00008012086F8148001F0A2FC404601F0C1FC00E023B1237A5BB92B7D4BB90123626842453FF477AF0BF1010BD5F804805F
:404B000071E701F087FC012001F0ACFC002001F087FC042194F8B60002F034F894F8B60002F040F880460028F8D196F8B60001F0CDFF337D327A0293012303920193CDF8AF
:404B400000A05B463A4649468648FFF7ACFBC6F81080BAF1000F0BD0FFF758FB002001F0D7FB237A63B18048FFF79DFB0220EDE0B945F1D07D490120FFF728FB0137F7E7A0
:404B80007B48FFF790FB7B4B3DE094F8780001F0D7FB206FFFF714FC7748FFF784FB94F87930236100232375237D002BFCD0012001F036FC00233375237D002BFCD000206D
:404BC00001F02EFC00236D483361FFF76CFB6C4B19E0002084F86A00FFF7F2FB694B12E094F8743023B195F875200AB985F8782094F875201AB113B9012385F878306248E9
:404C0000FFF79AFB614B1B88ADF8203085E0FFF781FB01F023FE002001F0C6FD2A2701F0F1FC002001F094FC3A46002108A802F013FA17238DF820308DF8217002F078F841
:404C4000002001F059FB002001F0F0FBC82002F031F80DF12200FFF7F1FA0DF13600FFF70EFB02F065F8012001F0E0FB322002F021F80DF12600FFF7E1FA0DF13A00FFF7E0
:404C8000FEFA012001F038FB4FF4967002F012F802F04EF80DF12E00FFF7D0FA0DF14200FFF7EDFA002001F027FB4FF4967002F001F802F03DF8022001F0B8FB322001F09A
:404CC000F9FF0DEB0700FFF7B9FA0DF13E00FFF7D6FA012001F010FB4FF4967001F0EAFF02F026F80DF13200FFF7A8FA0DF14600FFF7C5FA002001F0FFFA4FF4967001F0BD
:404D0000D9FF02F015F8002001F090FB002384F86A3001F025FD01F0F7FB08A8FFF7D8FA16E01B4B08A81B88ADF82030FFF7D0FA4FF4FA7001F0BEFF94F87830012B01D168
:404D400001F004FE01F0AEFF02E00120FFF7D2FA032000F075FC0F48FFF7A5FAFFF7CCBB3F000080ED7900001D7A00003892FF1F277A0000FC7800002F7A00003D7A0000D7
:404D8000FE78000000790000F681FF1F02790000047900004A7A00002DE9F04172B68D4B61221A70A3F5F06301221A8019248A4A9C7092E803008033062283F8002283E83A
:404DC0000300522203F580731A70844B844A1B78844EDBB2137040F61802834B834F1A8041F25122002523F8022C3B784FF4F07003F0010343EA450502F0C6F8013C05F071
:404E000003052FD0032DF0D1794B4FF480721A8007221A70774A002548211570917002221D705D7103F8032C0422DA71724A734C1378734F43F00103137012F8013C4FF03D
:404E4000060843F0030302F8013C2378012243F0800323705F4B1A706A4A137843F02003137000E0FEE708FB057300219A881868013502F0F1F8072DF5D100221046830058
:404E800003F19043F15806EB420321F0FF05C9B20A4406EB420103F1904301F19041913393310233994206D013F8037C13F802EC07F805E0F5E701302428E0D1524A002372
:404EC0001360936013619361504B514DD3F8541A504F1162D3F8581ADFF8648191624E490A7842F002020A700A7C42F002020A742278A1F5863142F04002227041390A7888
:404F000042F010020A7003F60C2207CA03C52A80D3F8180A414A2835106093F81C1A117103F5226207CA03C52A8003F62C22E83D07CA03C52A8003F63822083507CA03C52A
:404F40002A80374A03F6442303CBA2F56162C2F8100EC2F8141E1378042043F008031370304B02F5AA521B783D78DBB298F80060EDB203F007010C321B091170F6B253702F
:404F800045F003033B7046F0030388F80030264B48221A70254A402313702549937013729372082382F81F3220220A7048710A72204A0A20137001F093FE1F4B88F80060A0
:404FC00044223D701D4D1A7094E80F0007C52B80BDE8F081004800404C1200480F010049A14600400008000022420040254200400440004006400040A2430040A04300403F
:405000004F7A0000E84600400076004000080048C0510040F846004003500140CB51004032510040CF0100491D51004001590040235B0040585B004076580040B04300405E
:40504000F946004008B501F0DBFF03680C2B00D1FEE7FEE7084908B50B68084A1844821A802A01DC086005E001F0CAFF0C2303604FF0FF33184608BDCC80FF1F8893FF1FCA
:4050800080B51148114B0025C0B1A3F1100192C922460439161BB74204D051F8046F42F8046BF7E7114653F8046C8C1AA64202D041F8045BF9E701381033E5E701F0A6FFC2
:4050C000FFF7CAF9FEE700BF01000000207C0000124A134B10B51A60124A134C1368134843F4007313600023032B98BF54F823204FEA830188BF0E4A0133302B4250F3D197
:405100000C4B1A780C4B1A700C4B084A1A60FFF743FEBDE8104001F0ADBC00BF0004FA050CED00E014ED00E0004000000080FF1F45500000BC760040C080FF1F08ED00E068
:40514000F8B501F029FF4B4A01271378022643F001031370137C484C43F001031374474B02F5E3521F700B3203F8946C1378054603F07F031370002001F0B2FD2378404A26
:4051800003F0F90323701378384603F0DF03137023783B43237001F0A3FD282001F0A0FD384B30461A7802F07F021A701A7802F0BF021A7023783343237001F091FD2378E4
:4051C000314A43F0040323700023137053702F4AFF2199540133092BFBD1284601F0E0FE0721172001F0C4FD2949172001F0B2FD0721182001F0BCFD2649182001F0AAFD64
:405200000721152001F0B4FD2349152001F0A2FD0721052001F0ACFD2049052001F09AFD0721062001F0A4FD1D49062001F092FD0721084601F09CFD1A49072001F08AFD53
:405240000721082001F094FD1749082001F082FD0021162001F08CFD1449162001F07AFD07210C2001F084FDBDE8F84010490C2001F070BDA5430040944300409D600040D6
:4052800012600040F851004084600040AD92FF1F0F5B0000495900000D5B0000415A00006D5A00009D5A0000D55A0000155B0000895B0000214B224A10B518700023137017
:4052C000204A40201370204A0F2413701F4A13701F4A13701F4A13701F4A13701F4B4FF400021A604FF080721A604FF400121A6020221A601860802018604FF480701860F7
:40530000174804704FF480001860164B1A70933B19B91A7802F0FE0202E01A7842F001021A70114B03221A70802203F8202C012001F02AFE0D4B04221A7010BDC892FF1FA2
:40534000CE92FF1FCC92FF1FCD92FF1FC992FF1FB892FF1FCB92FF1F4093FF1F00E100E09E6000409C600040286000401260004070B5074C054623780E461BB9FFF7E0FE5A
:405380000123237031462846BDE87040FFF792BF7892FF1F0A4A002313700A4A13700A4A13700A4A13700A4A13700A4A13700A4A13700A4B03221A70802203F8202C7047E5
:4053C000CE92FF1FCC92FF1FCD92FF1FC992FF1FB892FF1FCB92FF1F4093FF1F28600040014B1878704700BFCD92FF1F044B1A7802F0FF001AB118780022C0B21A70704750
:40540000CC92FF1F024A0C2303FB002040787047D492FF1F431E072B0CD8074A064B00010344805C5B7800F00F0043EA0020023880B2704700207047FC5F00401A4A38B522
:405440000C2303FB00231B79090C13F0800F00F1FF35044619BF8AB24FF480438BB24FF48042032D18D8DFE805F002070C110021084601F0C7FA0DE00021084601F0A6FAC6
:4054800008E00021084601F085FA03E00021084601F064FA054B1855EDB2072D03D801F0ADFB034B185538BDD492FF1FA492FF1FAD92FF1F431E072B2DE9F04704468946A2
:4054C00015465CD82F4F0C2202FB0072D388DFF8B8A09BB2C3F500739D424FF00C0303FB007388BFD588DB7884BFC5F50075ADB2254A43EA15230601B354B244EBB28AF8A3
:405500000130224B1A5C9846FF2A01D1FFF796FF0C2303FB047200215170B9F1000F28D03DB31B4F385D01F0D1FA11232946FE2218F8040001F096FB06F5C04278321FFAF9
:4055400089F118F8040001F09FFB124D18F80410385D01F00BFB0121385D01F0A1FA735D43F002037355735D03F0FD037355BDE8F08703FB04746379DBB28AF80230BDE811
:40558000F08700BFD492FF1FFC5F0040AD92FF1FA492FF1F706000402DE9F047044615468846002940D0431E072B3FD8FFF732FFA84203D22046FFF72DFF05461D4E335D7E
:4055C000FF2B03D141462046FFF738FFDFF868A027011AF8040001F079FA1223FE222946305D01F03FFB07F5C0411FFA88F27831305D01F049FBDFF84490315D1AF804004C
:4056000001F0B4FA01211AF8040001F049FA17F8093043F0020307F8093017F8093003F0FD0307F8093002E00D4600E000252846BDE8F087AD92FF1FA492FF1F70600040AF
:40564000431E072B0AD8064A0C2303FB002300225A705A79034BD2B200011A54704700BFD492FF1FFE5F0040431E072B9FBF024B000108221A547047FE5F004030B51A4A0A
:405680001A491B4D0878138803449BB21380194A00231488D8B2A4B27CB1082B0CD050680078C0B2E85450680133013050601088013880B21080ECE718460B780E4C082B20
:4056C0000E4A00D040B10E4D2B7883F080032B700F232370022301E0022323701370094B1870087030BD00BF4493FF1F4093FF1F00600040BC92FF1FB992FF1FCE92FF1F23
:40570000CA92FF1F4193FF1F074B02221A70074B80221A70064B0F221A70064A00231370054A012013707047CE92FF1FCA92FF1FB992FF1F4093FF1F4193FF1F30B5164B49
:4057400016491B780A8803F00F03023BDBB21A4492B20A80124C134A0020118889B279B173B15568215C013BC9B229705168DBB20131516011880130013989B21180ECE757
:40578000094A1370094A137883F080031370084B0B221A7030BD00BF296000404493FF1F00600040BC92FF1F4193FF1FCA92FF1FB992FF1F064A06231370064A0120137077
:4057C000054B80221A70054B00221A70704700BFCE92FF1FB992FF1FCA92FF1F4193FF1F054B9A683AB19A68044910709A680988518000229A607047BC92FF1F4493FF1FC4
:4058000008B5124B1A78D2B21A701B78DBB21A0602D50F4A137008BD0220FFF7E1FF0D4B1B7803F06003202B05D0402B06D043B900F012FC04E001F0B7FB01E000F046FDC7
:4058400010B9034B03221A7008BD00BF28600040B992FF1F0060004008B5084A084B0120197813880B449BB21380064B00221A70FFF7B6FF044B03221A7008BD4493FF1FCF
:405880004093FF1FCE92FF1FB992FF1F08B50C4B1B78DBB2042B07D0062B09D0022B0DD1BDE80840FFF7D8BFBDE80840FFF746BF0320FFF795FF034B03221A7008BD00BF31
:4058C000CE92FF1FB992FF1F08B5054B002201201A70FFF785FF034B03221A7008BD00BFCE92FF1FB992FF1F08B50A4B1A7832B11A78094942F080020A7000221A70074B6E
:40590000002201201A70FFF76BFF054B03221A7008BD00BFB892FF1F08600040CE92FF1FB992FF1F074B1B78DBB2042B05D0062B05D0022B05D1FFF7A1BEFFF7C5BFFFF77C
:40594000D3BF7047CE92FF1F38B51D4C2378DBB2DD0634D518060AD503F00F03012B2ED1FFF74EFF174B1B78190609D538BD5A0602D5FFF7D7FF03E09D0620D5FFF786FFA6
:4059800023781B061BD4104B1A78104B1B7813430F4A13701278934211D10A4A0849154613782078DBB2000605D41378DBB20B700B7803F00F0328788342F1D138BD38BD33
:4059C00028600040B992FF1FCA92FF1F4193FF1F29600040054A00231380054A916819B191680B7092685380704700BF4493FF1FBC92FF1F0E4808B503889BB213B9FFF765
:405A000083FE13E00B4B02221A700B4B00221A70FFF7E0FF094AD1799379028843EA012392B2934238BF0380FFF728FE012008BDBC92FF1FCE92FF1FCA92FF1F00600040FA
:405A4000084B01221A700F3B9B7C074B1A7B02F00302012A1EBFDA7B82F08002DA7301225A7370470B600040D492FF1F094B02221A700F3B93F82230074B1A7E02F0030269
:405A8000012A1EBFDA7E82F08002DA7601225A76704700BF0B600040D492FF1F0B4B04221A700F3B93F83230094B93F8242002F00302012A1EBF93F8272082F0800283F80A
:405AC0002720012283F82520704700BF0B600040D492FF1F0B4B08221A700F3B93F84230094B93F8302002F00302012A1EBF93F8332082F0800283F83320012283F83120C9
:405B0000704700BF0B600040D492FF1F7047FFF741BC0000F0B5184B184E19780C27C9B201234FF0000C31B3CA0720D5144A4FEA031E7244947850782040C5070DD507FBFE
:405B400003652C79240608D5147804F0FE0414706D790C4CEDB204F80E50840706D507FB036425792D0658BF84F801C090700133DBB24908D7E7F0BD9F600040D492FF1FA0
:405B800070600040FE5F004000F058BF70B50446184B88B003AA03F11006154618685968083303C5B3422A46F7D11B782B70FCB12223237001AD03232846637001F052F9A0
:405BC000002220461146AB5C08AC04EB131414F8144C03F00F03847008AC234413F8143C0132082AC1700371417100F10400EAD108B070BD797A00002DE9F0431C4D012201
:405C00002E460C201F274FF0800E4FF0080C194B00FB02581401234418705F70164998F805902144B9F1000F07D098F8044024064CBF887081F802C001E081F802E000FBE6
:405C40000261CC880132E4B29C71CC88092AC4F30724DC71CC88E4B21C71C988C1F307215971D4D1054BFF221A70BDE8F08300BFD492FF1F70600040FC5F00400A60004023
:405C8000064B074A1B7802EBC30253681A7C824286BF03EBC003586900207047C892FF1FDC7A00002DE9F84F424B1A78002A7ED01878414D0138C0B2FFF7E2FFA8463F4A81
:405CC000C3681478007ADFF800C1E4B203EBC0000C2600274FF0010E834268D01A78A24263D11CF80420597891425ED19A7893F8039002F07F0206FB02FA05EB0A01CF7064
:405D000093F802B009F0030981F804B093F803B005F80AB0B3F804A0A1F808A093F902A0BAF1000F0BDAB9F1010F0CBF4FF007094FF00D0981F8059081F801E009E0B9F17E
:405D4000010F0CBF4FF005094FF0090981F805904F704FEA02191A4906FB0282494481F802E0B2F808A0CAF3072A81F800A0B2F808A05FFA8AFA81F801A0B2F806A011496D
:405D80005FFA8AFA494481F806A0B2F80690C9F3072981F80790B2F806905FFA89F981F80490D288C2F307224A71083394E7BDE8F88F00BFCD92FF1FD492FF1FC992FF1FE8
:405DC000FC5F004070600040BA92FF1F08B5064B18780138C0B2FFF753FF20B143681B7900EBC300406908BDCD92FF1F00212DE9F84F0B464E4E0C2707FB01F40131321942
:405E0000092933554FF000059370494CD3701381937253705371EFD118B1464B1D70464B1D70464B1A78002A7FD0187801250138C0B2FFF725FFA8464368DFF8F8E0DB79F1
:405E40000C2713F0400F3E4B4FF0000C1A7814BF42F0010202F0FE021A70027AD20007FB0541C36803EB02094B4531D093F802A00AF07F06AE4229D10E89B3F804B0B6B274
:405E80005E4538BFA1F808B01E7893F801B01EF80660B3451AD181F804A0DE780E7093F902A0DE78BAF1000F06F0030607DA012E0CBF07260D264E7181F8018006E0012E8F
:405EC0000CBF052609264E7181F801C00833CBE70135092DC3D1C1680A328B1C0A440C200833934209D013F8081C13F80A5C01F07F0100FB01418D72F2E7FFF767FF114B4A
:405F00000121186000230C2000FB0142D3801289013113449BB203F00102134409299BB2F2D1BDE8F84FFFF767BEBDE8F88F00BFD492FF1FBA92FF1F4293FF1FCD92FF1F97
:405F4000CB92FF1FD092FF1F114B1B7903F07F035A1E072A19D80F490C2202FB031291781B0141F0010191700021D170517841F002015170127912F0800F074A1A4414BF78
:405F80008D2389239370FFF715BC0020704700BF00600040D492FF1FFC5F004030B4194B1A7902F07F02531E072B27D8164B0C2404FB02339978154D01F0FE019970002124
:405FC000D97029461201505D114400F07F0050555A7802F0FD025A701A795B78120605D5012B01D18C7006E00D2303E0012B0CBF082309238B7030BCFFF7DCBB002030BC1A
:40600000704700BF00600040D492FF1FFC5F004010B50D4B0D4C21791878C9B20138C0B2FFF72EFE43681B798B4201D2012909D8074A0848535CDBB24354A3780120DBB21C
:40604000535410BD002010BDCD92FF1F00600040BA92FF1F4293FF1F38B58A4A8A4C13780021DBB221801806517840F18D800A2900F20581DFE811F05D00030103010301D3
:40608000030103010B0003017E0003018200D3787C49012B09D17D4B1A787D4B03EBC2035B685B686360122310E0CB78022B12D18878FFF7E5FD002800F0E180436863605A
:4060C0006368DA7863689B7843EA02232380BDE83840FFF78FBCCB78032B26D16D4B00228878D5B2854209D3664A91786A4AEE2908BF1346634A917881B106E018780132B1
:406100000028F1D018780344EAE764499278097C914203D16248FFF739FD614B1A78002A00F0AD801A78228018E0BDE8384000F03BBF13F0030313D0022B40F0A080238051
:40614000504B0C211B7903F07F02564B01FB02339A78554BD2B21A7000225A706360B6E702222280514A11784F4AC9B2117053706260ACE7012323804D4BEFE701232380DE
:4061800013794C4A1344E9E701390A2977D8DFE801F037764F76067676760A7620009378454ADBB25AE0937803F0FF0153B9404B1A7891425FD01970404B01201870FFF76B
:4061C00015FE58E0481EC0B2FFF75AFD0028EED155E0FFF71DFF002851D02A4A384913791279DBB2D2B20A70364A3249D25CCB5C9A4240D0314B01221A70FFF753FD3AE05C
:4062000003F00303012B2BD009D3022B37D11D4B9B78002B33D1BDE83840FFF7BFBE194B9B78012B2BD1214A137803F0FD0315E003F00303012B13D008D3022B1FD1114B1A
:406240009B78E3B9BDE83840FFF77EBE0D4B9B78012B14D1154A137843F0020313700AE0084B1A795AB998781B791749DBB2CA5C22EA0002CA54BDE83840FFF79BBA0020B1
:4062800038BD00BF00600040BC92FF1FC892FF1FDC7A0000407B0000C87A0000B37B00006093FF1FD492FF1F7992FF1FCB92FF1FCD92FF1FBA92FF1FB892FF1FCC92FF1F21
:4062C000C992FF1F4293FF1FCF92FF1F074B1A78120609D55B78012B06D1054B054A5A6012781A80FFF786BB0020704700600040BC92FF1FA07A0000014B1870704700BF08
:4063000076650040014B1878704700BF67640040014B1870704700BF77640040064A0123136002F688321268E0211064034A1170A2F540721360704780E100E000E400E0B2
:40634000014B1870704700BF7464004073B515461E460B4C04230022019200920A4601461846237000F02AFC32462946207800F0E5FB0221207800F0CFFB207802B070BD36
:40638000D080FF1F074A0223136002F688321268E0215064044A11706FF440710A441360704700BF80E100E001E400E073B515461E460B4C05230022019200920A46014641
:4063C0001846237000F0FAFB32462946207800F0B5FB0221207800F09FFB207802B070BDD180FF1F064A0423136002F688321268E0219064034A1170A2F2023213607047B2
:4064000080E100E002E400E0014B04221A60704700E100E0014B04221A60704780E100E0014B1870704700BF74650040014B1870704700BF78640040704738B505460078DD
:40644000012428B100F048FD285D0134E4B2F8E738BD08B50D2000F03FFDBDE808400A2000F03ABD014B1870704700BF7565004010B500F091FD204A044613780A2043F06E
:4064800002031370137C43F00203137412F80A3C43F0010302F80A3C937943F00103937102F5AB52137843F003031370134B18221A7013F8012C42F0400203F8012C13F8BC
:4064C000012C02F0FC0203F8012CCE2203F8062CA3F597530222183B1A70094A137843F00803137000F0FCFB064B10222046BDE810401A6000F054BDAB4300400E59004003
:406500002F5B004080E200E008B500F045FD0F4A137803F0FE031370A2F5AA521D3A137803F0FD031370137C03F0FD03137412F80A3C03F0FE0302F80A3C937903F0FE038D
:406540009371BDE8084000F02BBD00BF08590040044A137803F03F0343EA8010C0B21070704700BF08590040082804D00A280CBF8223C22300E0422308380E4AC0B2042818
:40658000137098BF0C4B4FF0000298BF33F910100A4B88BF11461A8042F210734B4341F2883103F6C41393FBF1F305490B60054B1A8070470A5900408A7A00004A93FF1FCA
:4065C0004C93FF1F5093FF1F08B5102000F03EFA0721042000F0CCFB0749042000F0BAFB064A0C20137843F006031370FFF7BCFF034B00221A8008BDC1660000095900405D
:406600004893FF1F10B5054C23781BB9FFF7DCFF01232370BDE81040FFF72ABF7B92FF1F044B1A7802F0FB021A701A7842F001021A7070470859004010B5084B1C7814F0A2
:40664000010403D10028F9D0002404E0204600F047FB024B1B78204610BD00BF09590040034A044B1B881088181A00B2704700BF5093FF1FA25B00400E4A13881BB223B139
:4066800011880A2309B2594301E00B4B19680B4B1B88C01A42F2107300B203FB00F2022391FBF3F30028D8BF5B42134493FBF1F000B270474A93FF1F4C93FF1F4893FF1FC6
:4066C0007047000010B500F067FC214A044613780A2043F001031370137C43F00103137412F80A3C43F0020302F80A3C937943F00203937102F5AA521832137843F0030349
:406700001370144B18221A7013F8012C42F0400203F8012C13F8012C02F0FC0203F8012CCE2203F8062CA3F597530222123B1A70094A137843F00803137000F0D1FA074B49
:4067400008222046BDE810401A6000F029BC00BFAB43004006590040275B004080E200E008B500F019FC0F4A137803F0FE031370A2F5AA52153A137803F0FE031370137C25
:4067800003F0FE03137412F80A3C03F0FD0302F80A3C937903F0FD039371BDE8084000F0FFBB00BF00590040044A137803F03F0343EA8010C0B21070704700BF005900401D
:4067C000082804D00A280CBF8223C22300E0422308380E4AC0B20428137098BF0C4B4FF0000298BF33F910100A4B88BF11461A8042F210734B4341F2883103F6C41393FB62
:40680000F1F305490B60054B1A80704702590040947A00005693FF1F5C93FF1F5493FF1F08B5102000F01CF90721032000F0A0FA0749032000F08EFA064A0C20137843F06C
:4068400006031370FFF7BCFF034B00221A8008BD19690000015900405893FF1F10B5054C23781BB9FFF7DCFF01232370BDE81040FFF728BF7C92FF1F044B1A7802F0FB020C
:406880001A701A7842F001021A7070470059004010B5084B1C7814F0010403D10028F9D0002404E0204600F01BFA024B1B78204610BD00BF01590040034A044B1B8810887D
:4068C000181A00B2704700BF5493FF1FA05B00400E4A13881BB223B111880A2309B2594301E00B4B19680B4B1B88C01A42F2107300B203FB00F2022391FBF3F30028D8BF13
:406900005B42134493FBF1F000B270475693FF1F5C93FF1F5893FF1F70470000014B1870704700BF72640040014B1870704700BF76640040014B1870704700BF7564004090
:40694000014B1870704700BF79640040024B40221A7000F0A7B900BFFA460040F7B516461F460B4C00230325019300930A4601462846257000F022F93A463146207800F08E
:40698000DDF80221207800F0C7F8207803B0F0BDE080FF1FF7B516461F460B4C00230225019300930A4601462846257000F006F93A463146207800F0C1F82946207800F035
:4069C000ABF8207803B0F0BDE180FF1FF7B516461F460B4C00230125019300930A4601462846257000F0EAF83A463146207800F0A5F80221207800F08FF8207803B0F0BD97
:406A0000E280FF1F73B515461E460B4C0023019300930A4601461846237000F0CFF832462946207800F08AF80221207800F074F8207802B070BD00BFE380FF1F024B187873
:406A4000C0F38010704700BF8F450040034A00F0F800137803431370704700BF02410040034A00F0F800137803431370704700BF06410040074A7F23802113705170064A19
:406A8000013BDBB202F80839002BF9D1034A1370704700BFE480FF1FF87B00400078004017280FD8084B0001C25C11B142F0200201E002F0DF02C254C25C42F00102C254C9
:406AC00000207047012070471070004017280BD8064B0001C25C02F0FE02C254C25C02F0DF02C25400207047012070471070004017280DD8074900010B4603441A7942F045
:406B000004021A71435C43F00103435400207047012070471070004017280BD8064A0001835C490003F0F10301F00E011943815400207047012070471070004041F6FF731D
:406B4000994208BF4FF400519A4208BF4FF4005217289FBFC00000F1804000F5EC4081809ABFC280002001207047000017289FBF034B00011954002088BF0120704700BF8D
:406B80001970004017289FBF054B00011A5C01F007019DBF1143195400200120704700BF1470004017289FBF034B0001185C00F0070088BFFF20704714700040172810B5DB
:406BC0001AD8C00001F07F0100F1804441EAC21204F5EC44D2B222709DF8082003F00F0343EA0213DBB263709DF80C30002003F00F03A370E07010BD012010BD10B500F052
:406C0000CBF90A4A5378182B0AD91478013B5370E30003F1804303F5F0431B78137000E0FF2400F0BDF9204610BD00BFE480FF1F030610B5044611D400F0AEF9084AE300FF
:406C4000117803F1804303F5F04319705378147001335370BDE8104000F0A2B910BD00BFE480FF1F30B504060CD411F4704509D1C40004F1804404F5F0442180A270E37079
:406C8000284630BD012030BD03065FBFC00000F1804000F5F04081805ABFC2800020012070470000024A137843F0010313707047F646004038B50446084DB4F5004F05D934
:406CC000286800F061F9A4F50044F6E7034B58686043BDE8384000F057B900BFEC80FF1F024B1B7A584300F04FB900BFEC80FF1F0E4B00F003001A78490102F0FC021043C0
:406D000018701A7801F0600142F080021A701A7802F07F021A701A7802F09F020A431A701A7842F010021A70704700BF83430040014B01221A70704784430040044B00F04C
:406D40000F021B6853F8220043F82210704700BF08ED00E0054A00F01F00126800F1100352F8230042F82310704700BF08ED00E000F01F0000F16040490100F56440C9B25B
:406D8000017070470F4B10B50F4900240F205C609C60DC601C615C61FFF7D0FF0B4A136843F0040313600A4B4FF47A72DB68B3FBF2F3084A1360084B4FF400421C60C3F843
:406DC000E82010BD8092FF1F316E000010E000E0EC80FF1F14E000E018E000E0024A136843F002031360704710E000E008B5FFF7F5FF034A136843F00103136008BD00BF53
:406E000010E000E010B5054CA3691BB9FFF7BAFF0123A361BDE81040FFF7E8BF8092FF1F024B1868C0F30040704700BF10E000E038B5FFF7F5FF012808D1054D002455F851
:406E4000243003B198470134052CF8D138BD00BF8492FF1F024B03EB80035868596070478092FF1F134B144A1B78DBB20360127843EA0223114A0360127843EA0243104AC7
:406E80000360127843EA026303600E4B0E4A1B78DBB24360127843EA02230C4A4360127843EA02430A4A4360127843EA02634360704700BF0301004904010049EC46004072
:406EC000020100490101004900010049050100490601004900000000FEB5494652465B460EB40746244909688A46244A12682448022100F071F8030020480068C0182049F6
:406F000000F06AF8143883460121C9430C460125002600F041F8814651460B7823400B705846013000F030F83800F04028400B78234003430B70584600F026F80136072EC0
:406F4000F2D9002001300138013001200B78234003430B705846043000F016F8484600F01FF800BF00BF00BF0EBC894692469B46FEBD00BFAFF30080D480FF1FF880FF1F2B
:406F800000C20100000000000230800803D000BF01380046FCD17047EFF3108072B6704780F31088704700BF094A137803F00303012B0AD0022B09D113790C2103F07F02DC
:406FC000044B01FB02339B7A00E013790020704700600040D492FF1F002902D0B0FBF1F0704708B14FF0FF3000F008B80029F8D00246B0FBF1F000FB11217047704700BF61
:40700000014B1868704700BF5C81FF1F0E4B70B51E460E4C0025E41AA410A54204D056F8253098470135F8E700F0E0FD084B094C1E46E41AA4100025A54204D056F82530A0
:4070400098470135F8E770BDF87B0000F87B0000F87B0000007C000003460244934202D003F8011BFAE7704730B5141E05469BB0184604DA8B232B604FF0FF301DE04FF465
:407080000273ADF80C300CBF234604F1FF33029305934FF6FF7300910491ADF80E3002461E9B6946284600F073F8431CBCBF8B232B6014B1009B00221A701BB030BD0000E2
:4070C00007B5009313460A46014603480068FFF7CBFF03B05DF804FB5C81FF1F2DE9F0478E6882469E420C46914698463ED88A8912F4906F3AD02568096902236F1A656937
:4071000005EB450595FBF3F57B1C43449D4238BF1D4653050FD5294600F04AFB064698B13A46216900F0D2FAA38923F4906343F08003A38113E02A4600F098FB064670B9A0
:407140002169504600F0E8FA0C23CAF80030A3894FF0FF3043F04003A381BDE8F08726613E44266046466561ED1BA560464528BF464649463246206800F0B3FAA368002069
:407180009B1BA36023681E442660BDE8F08700002DE9F04F9DB003938B8980461C060D4616460DD50B695BB9402100F001FB2860286118B90C23C8F80030CDE040236B6110
:4071C0000023099320238DF82930DFF89CB130238DF82A3037463C4614F8013B1BB9B7EB060910D003E0252BF9D02746F3E74B46324629464046FFF771FF013000F0A780BE
:40720000099B4B4409933B78002B00F0A08000234FF0FF3204930793059206938DF853301A930126052221784E4800F041FA671C049B38B14B4A3C46801A06FA00F0184339
:407240000490EFE7D90644BF20228DF853201A0744BF2B228DF8532022782A2A03D0079A00210A200BE0039A111D12680391002A10DA524243F00200079204900BE027464C
:407280003B780134303B092B03D800FB02320121F5E701B107923B782E2B1ED17B782A2B0AD1039B02371A1D1B680392002BB8BF4FF0FF33059310E0002319460593781C67
:4072C0000A2407463A780130303A092A03D804FB01210123F5E703B1059103223978224800F0E6F940B14023CBEB000003FA00F0049B013718430490397806221B487E1CAB
:407300008DF8281000F0D4F988B1194B33B9039B073323F007030833039314E003AB00932A46144B04A94046AFF3008007E003AB00932A460F4B04A9404600F093F8B0F1EA
:40734000FF3F824603D0099B5344099342E7AB895B0601D4099801E04FF0FF301DB0BDE8F08F00BFC77B0000CD7B0000D17B000000000000DD7000002DE9F04791461F467E
:407380000A698B6806469342B8BF1346C9F8003091F843200C46DDF8208012B10133C9F800302368990642BFD9F800300233C9F80030256815F0060510D104F1190A07E01B
:4073C0000123524639463046C04701301AD00135E368D9F800209B1A9D42F1DB94F843302268003318BF012392060FD5E118302081F843005A1C94F845102244023382F844
:40740000431003E04FF0FF30BDE8F08704F1430239463046C0470130F4D02268D9F80050E36802F00602042A08BF5D1B2269A3680CBF25EAE57500259342C4BF9B1AED1803
:407440004FF000091A344D4509D00123224639463046C0470130D5D009F10109F3E70020BDE8F0872DE9F04317460A7E85B06E2A984606460C460C9B01F1430E00F0AE8014
:4074800011D8632A22D009D8002A00F0BB80582A40F0CA8081F84520834955E0642A1ED0692A1CD0C0E0732A00F0B08009D86F2A2ED0702A40F0B8800A6842F020020A6051
:4074C0003EE0752A24D0782A3AD0ADE01A6801F14205111D1960136884F84230A8E021681A6811F0800F02D0111D196008E011F0400F02F10401196002D0B2F9003000E005
:407500001368002B3CDA2D225B4284F8432037E021681A6811F0800F02D0111D196007E011F0400F02F10401196001D0138800E01368227E5C496F2A14BF0A2208221BE028
:4075400078225A4984F845202268186812F0800F00F104051D6003D1550601D5038800E00368D00744BF42F0200222601BB9226822F0200222601022002084F8430001E04A
:4075800049490A226568002DA56008DB206820F0040020602BB9002D7DD175460CE0002B79D07546B3FBF2F002FB1033CB5C05F8013D03460028F5D1082A0BD12368DA07F7
:4075C00008D5236962689A42DEBF302305F8013C05F1FF35C5EB0E0323612EE008681A6810F0800F496903D0101D1860136808E010F0400F02F104001860136801D0198024
:4076000000E0196000232361754616E01A68111D1960156800216268284600F049F808B1401B6060636804E004F1420584F8422001232361002384F84330CDF800803B464C
:4076400003AA21463046FFF797FE013002D14FF0FF3026E023692A4639463046C0470130F5D023689B0710D5002504F1190907E001234A4639463046C0470130E7D001358C
:40768000E368039A9B1A9D42F2DBE068039B9842B8BF184605E00B7804F1420584F842308AE705B0BDE8F083797A0000D87B000010B5C9B202449042034605D01C7801309B
:4076C0008C42F8D1184610BD002010BD10B5431E0A44914204D011F8014B03F8014FF8E710BD884210B501EB020301D8421E0BE09842FBD28118D21AD34204D013F8014D62
:4077000001F8014DF8E710BD994204D011F8014B02F8014FF8E710BD38B50546002944D051F8043C0C1F002BB8BFE41800F0D4F81E4A1368114613B96360146030E0A342A7
:407740000DD92268A018834201BF18685B681218226063600C6023E0A24203D813465A68002AF9D118681918A1420BD12168014458188242196013D11068526801441960AE
:407780005A600DE002D90C232B6009E021686018824201BF106852680918216062605C602846BDE8384000F098B838BDA092FF1F70B5CD1C25F0030508350C2D38BF0C25F4
:4077C000002D064601DBA94202D90C23336046E000F082F8234B1C681A462146A1B10B685B1B0ED40B2B03D90B60CC18CD501EE08C420BBF63684B681360636018BF0C4655
:4078000015E00C464968E9E7174C23681BB9304600F052F820602946304600F04DF8431C18D0C41C24F00304A0420DD12560304600F053F804F10B00231D20F00700C31A08
:407840000ED05A42E25070BD211A304600F034F80130EBD10C233360304600F03EF8002070BD00BFA092FF1F9C92FF1FF8B5074615460E4621B91146BDE8F840FFF798BF6B
:407880001AB9FFF749FF2846F8BD00F027F885420ED929463846FFF78BFF044650B131462A46FFF713FF31463846FFF735FF01E03046F8BD2046F8BD38B5064C002305463D
:4078C00008462360FDF7C6FB431C02D1236803B12B6038BD8493FF1F7047704751F8040C0028BEBF091851F8043CC0180438704700000000050209020B020D020F021102A9
:407900001302150219027265706C792030782530327800686F6D696E6700626567696E6E696E67207365656B2066726F6D20256420746F2025640066696E6973686564207F
:407940007365656B00796573006E6F00647269766520303A20257320647269766520313A2025730057616974696E6720666F72205553422E2E2E005553422072656164796B
:4079800000636F6D6D616E6420307825303278006661696C2025642B25642B2564203D3D2025642C206E6F74202564007061737365643D256400756E64657272756E2061B1
:4079C00066746572202564207061636B65747300636F756E743D256420693D256420643D256400636D645F777269746500703D25642063723D25642063773D256420663D68
:407A0000256420773D256420696E6465783D256420756E64657272756E3D256400756E64657272756E2100737563636573730073746172742065726173696E670073746FEF
:407A4000702065726173696E670069646C650000510040100040510040300000000140001000140140000800400140000A004C01400002005001402000303132333435366F
:407A8000373839414243444546000001000000040000001000010000000400000010000028000000000104000100000000000000000157494E555342000030303030310067
:407AC000000000000000000012034D005300460054003100300030000100000001000000E47A000001000000B37B0000000000000000000001000000FC7A0000010000009F
:407B0000857B0000040000001E7B00000000000000000000000000001C7B0000FF00000001024000FF00000082024000FF00000003034000FF00000084034000FF000203FD
:407B400004030904160346006C007500780045006E00670069006E0065002A0343006F0077006C00610072006B00200054006500630068006E006F006C006F0067006900B7
:407B8000650073000009022E0001010080320904000004FF00000107050102400000070582024000000705030340000A0705840340000A12010002FF0001080912006E01F0
:407BC00000020180014300232D302B2000686C4C00656667454647003031323334353637383961626364656600000000F8B500BFF8BC08BC9E4670473D400000D150000050
:407C0000F8B500BFF8BC08BC9E46704719400000207C0000C880FF1F9800000028120000000000008893FF1FFFFF0000675000400C00000007000000FFFFFFFF7F8000005C
:407C40003F0000000000007D00FA0000400000000090D0030000000000000000000000000000000000000000000000000000000000000000C57B000000000000000000006B
:407C800000000000000000000000000000000000000000000000000000000000000000000000000000000000000000000000000000000000FC80FF1F00000000000000002A
:407CC0000000000000000000000000000000000000000000000000000000000000000000000000000000000000000000000000000000000000000000000000000000000084
:407D00000000000000000000000000000000000000000000000000000000000000000000000000000000000000000000000000000000000000000000000000000000000043
:407D40000000000000000000000000000000000000000000000000000000000000000000000000000000000000000000000000000000000000000000000000000000000003
:407D800000000000000000000000000000000000000000000000000000000000000000000000000000000000000000000000000000000000000000000000000000000000C3
:020000040003F7
:40FFC000D0114000003F0000000053000000000000000000D2FF0000000000000000000000000000000000000000000000000000000000000000000000000000000000007D
:0200000480007A
:4000000000000000000000000000000000000000000000000000000000000000000000000000000000000000000000000000000000000000000000000000000000000000C0
:400040000000000000000000000000000000000000000000000000000000000000000000000000000000000000000000000000000000000000000000000000000000000080
:400080000000000000000000000000000000000000000000000000000000000000000000000000000000000000000000000000000000000000000000000000000000000040
:4000C0000000000000000000000000000000000000000000000000000000000000000000000000000000000000000000000000000000000000000000000000000000000000
:4001000000000000000000000000000000000000000000000000000000000000000000000000000000000000000000000000000000000000000000000000000000000000BF
:40014000000000000000000000000000000000000000000000000000000000000000000000000000000000000000000000000000000000000000000000000000000000007F
:40018000000000000000000000000000000000000000000000000000000000000000000000000000000000000000000000000000000000000000000000000000000000003F
:4001C00000000000000000000000000000000000000000000000000000000000000000000000000000000000000000000000000000000000000000000000000000000000FF
:4002000000000000000000000000000000000000000000000000000000000000000000000000000000000000000000000000000000000000000000000000000000000000BE
:40024000000000000000000000000000000000000000000000000000000000000000000000000000000000000000000000000000000000000000000000000000000000007E
:40028000000000000000000000000000000000000000000000000000000000000000000000000000000000000000000000000000000000000000000000000000000000003E
:4002C00000000000000000000000000000000000000000000000000000000000000000000000000000000000000000000000000000000000000000000000000000000000FE
:4003000000000000000000000000000000000000000000000000000000000000000000000000000000000000000000000000000000000000000000000000000000000000BD
:40034000000000000000000000000000000000000000000000000000000000000000000000000000000000000000000000000000000000000000000000000000000000007D
:40038000000000000000000000000000000000000000000000000000000000000000000000000000000000000000000000000000000000000000000000000000000000003D
:4003C00000000000000000000000000000000000000000000000000000000000000000000000000000000000000000000000000000000000000000000000000000000000FD
:4004000000000000000000000000000000000000000000000000000000000000000000000000000000000000000000000000000000000000000000000000000000000000BC
:40044000000000000000000000000000000000000000000000000000000000000000000000000000000000000000000000000000000000000000000000000000000000007C
:40048000000000000000000000000000000000000000000000000000000000000000000000000000000000000000000000000000000000000000000000000000000000003C
:4004C00000000000000000000000000000000000000000000000000000000000000000000000000000000000000000000000000000000000000000000000000000000000FC
:4005000000000000000000000000000000000000000000000000000000000000000000000000000000000000000000000000000000000000000000000000000000000000BB
:40054000000000000000000000000000000000000000000000000000000000000000000000000000000000000000000000000000000000000000000000000000000000007B
:40058000000000000000000000000000000000000000000000000000000000000000000000000000000000000000000000000000000000000000000000000000000000003B
:4005C00000000000000000000000000000000000000000000000000000000000000000000000000000000000000000000000000000000000000000000000000000000000FB
:4006000000000000000000000000000000000000000000000000000000000000000000000000000000000000000000000000000000000000000000000000000000000000BA
:40064000000000000000000000000000000000000000000000000000000000000000000000000000000000000000000000000000000000000000000000000000000000007A
:40068000000000000000000000000000000000000000000000000000000000000000000000000000000000000000000000000000000000000000000000000000000000003A
:4006C00000000000000000000000000000000000000000000000000000000000000000000000000000000000000000000000000000000000000000000000000000000000FA
:4007000000000000000000000000000000000000000000000000000000000000000000000000000000000000000000000000000000000000000000000000000000000000B9
:400740000000000000000000000000000000000000000000000000000000000000000000000000000000000000000000000000000000000000000000000000000000000079
:400780000000000000000000000000000000000000000000000000000000000000000000000000000000000000000000000000000000000000000000000000000000000039
:4007C00000000000000000000000000000000000000000000000000000000000000000000000000000000000000000000000000000000000000000000000000000000000F9
:400800000145004009520040015B00400165004047000140380101404E0201404703014046040140440501404C060140490701402C08014031090140040B0140030D01406D
:400840006C14014057150140591601404B17014011190140071B01400B400140104101400C4201400F43014002440140054501400A4601400B4701400C4801401049014044
:40088000174C01400C4D014006500140045101407E02080409021082110218021904601561137C402721240A02E40303040E0520064107C00A840B900E840F90100112068B
:4008C00013901684179019011A841B481C081DFC1E221F0221C122182324268427902B9C2CE72E10300733E0351F36F83A023B084204460E480449FF4AFF4BFF4F83580B3E
:40090000590B5A045B045C995D095F01868088028A8190E7921094019686980F9A409C0F9E20A2E0A618A804AA81AE80B207B4F8D80BDC09DF010022022003010524084081
:4009400009080A080B400C420D200E2010021108130215801610172119011A011C241E201F0C210422082308284029042B88312032643301382039883A013B80424052800F
:400980005A215B4A600461016218634278027C028280C06FC2FFC4FDCA07CC0FCE0FD001D60FD80FDE8103140404050806110710081F0A800C010E1E0FE4101F1240151025
:4009C00016E0178218021A111B141C1F1E20211023212408261127142B142D1F2F4032F0330F360F37F03A083B80580B590B5B045C995F0182038308846186088730882044
:400A000089108A508B828DC78E108F2892109304961C97C49A109B04A061A110A204A341A440A630A704AB04AC7CAE02AF04B01FB30FB460B5F4BB08D80BD90BDB04DC99F7
:400A4000DF01012A02200301040805400708081009080B8C0C420E200F04104211081504180819221A0C1B011C221D4C1E211F4820042218242025442731285029402B8831
:400A80002C022E042F883204331134103508380439813A103D8C3E016230680269806A806D4078027C029308942096E897809C029D249F61A403A50CA620A781AA01AB0881
:400AC000C0EFC2FEC42DCAFFCC67CEDFDE81E208021004400620080C0C010E0210081101140818051A081C04200828202AC02CE02F0130603280341E3501360138203E40E5
:400B00005608580459045B045C995D905F0181608209842487108A128B108F10903F93039407950197089B1C9D40A036A209A310A710A82DA901AA12AB04AC40AD7CAF0218
:400B4000B11FB238B440B540B607B720BE10D608D80BD90BDB04DC99DD90DF01000201280302040A070409980B800C020E20104212081550170119281A401B401E201FA09D
:400B800022102662274828022C022E052F043302364237283C203D803F0558805D80600267016B026D106F017C0287208B848F4091409205930496409B209C029F48A01242
:400BC000A140A208A620A780AD01AE08C07FC23FC4DBCAF8CCF1CEF0D618D818DE80E208E408EA040104020F0440068008700A800C800E200F0110011106130114081602E1
:400C0000170218011C0F1EF0200124072608288029052A102B022C082E04310736FF3E403F01580459045B045F018001811C820283E18402852087C0880489828B218C0240
:400C40008D088F10900491FF940495089710980599029C049D04A002A1FCA402A520A740A802AC03AE04AF02B007B3FCB503BB20BE01D804D904DB04DC90DF010081012438
:400C800004450520084009080A080B810C080D010E020F041008120113861544172219011C0220042114222C23282740280229012B202D103008318032103302370539688A
:400CC0003A013D82588068066C016D806F048004810184048F0191109220940A9780980299209B019C409F04A401A598A702A880A980AF02C0FFC2FFC4FFCA2BCCCFCE9F86
