:400000000080002011000000A5020000A502000008B5054B1A6803F53F5302331A6000F0AFFA00F047F900BFFA46004010B5054C237833B9044B13B10448AFF300800123AF
:40004000237010BD4881FF1F0000000058280000084B10B51BB108490848AFF300800848036803B910BD074B002BFBD0BDE81040184700BF000000004C81FF1F5828000008
:40008000C880FF1F0000000008B500F06DF928B1054B1B7803F0C003402B02D14022024B1A7000F089FDFEE7FA460040FEE700BFF0B40022174611E050F82760F3B226F0C1
:4000C000FF0608E001EB420511F812406D78A5550132013BDBB2002BF4D10137112FEBD9F0BC7047064B1B78DBB203F00701054A11701B09013213704422034B1A70704710
:40010000CF0100496E5800407658004008B50A46002102F094FB08BD08B502F085FB08BD08B502F081FB08BD38B54BF21A72244B1A80192502331D70062203F27E231A7033
:400140005222A3F580731A701E4B1B78DBB21E4A13704FF4E2621D4B1A8041F25122023B1A8000240CE01A4B1B7803F0010343EA440404F003044FF4F07001F05DF8013DE6
:400180000DB1032CEFD115B90320FFF78FFF114A4FF4807313800723137000230E490B7048200231087013700532137002220B4B1A700B4A137843F00103137038BD00BFB5
:4001C000804000400F010049A14600402242004025420040044000400640004001400040A243004038B572B600240CE0254D630019194A0011462A44084691882858FFF76C
:4002000085FF0134E4B2072CF0D91E4C04F1300104F1B800FFF74CFF1B4A137843F0020313701032137843F002031370174D2B7843F040032B70A2F58632513A137843F012
:40024000100313700A2204F580711148FFF764FF0A2204F586710F48FFF75EFF0E4A137843F0080313700D4C61232370FFF75CFFC1232370FFF736FF0E2229460848FFF76E
:400280004FFF38BD5C28000003500140A0430040F0510040205100402243004000480040B043004008B502F093FA03680C2B00D1FEE7FEE708B5104E104D16E029686B68E3
:4002C000AC68002204E051F8040B43F8040B0432A242F8D1E868002203E0002143F8041B04328242F9D11035013E002EE6D102F075FAFFF7C9FEFEE701000000402B0000F3
:4003000008B5104A104B1A60104A136843F40073136000230AE0032B03D80D4A52F8231000E00C490C4A42F8231001332F2BF2D90A4B1A780A4B1A70074A0A4B1A60FFF7C8
:4003400051FF08BD0004FA050CED00E014ED00E000000000A50200000080FF1FBC760040C080FF1F08ED00E0024B1878C0F38000704700BF21510040002306E0421812F81C
:40038000012C13449BB2013989B20029F6D1584280B2704730B4002306E01C5CE4B2CD5CAC4205D101339BB29342F6D3002000E0022030BC704700BF004700BF08B5802294
:4003C000024B1A7000F0BCFD08BD00BFFA4600402DE9F04182B00C46164602AF27F8022D01230B7048701546A270130ACB7002F104081FFA88F12046FFF7BEFF04F8080089
:40040000731DC0F30720E054063517236355F11D96233A4689B2204600F018FC02B0BDE8F08100BF70B505460E461446084B984203D010B1002000F081FD002004E0013CD0
:40044000AB19E35C1844C0B2002CF8D170BD00BF0080004008B501380B2873D8DFE800F0060F18212A33453C4E576069C1EB01610B0203F57F3303F57073012167E0C1EB90
:4004800001610B0203F57F3303F2C13304215EE0C1EB01610B0203F57F3303F2C533022155E0C1EB01610B0203F57F3303F2C93304214CE0C1EB01610B0203F57F3303F509
:4004C0007473012143E0C1EB01610B0203F57F3303F2D13301213AE0C1EB01610B0203F57F3303F2D633022131E0C1EB01610B0203F57F3303F2D233022128E0C1EB0161E7
:400500000B0203F57F3303F5757302211FE0C1EB01610B0203F57F3303F57673042116E0C1EB01610B0203F57F3303F5777301210DE0C1EB01610B0203F57F3303F57873E3
:40054000042104E0002000F0F9FC02210023012902D11878C0B200E00020022903D11A78587842EA0020042909D11A78587842EA0022987842EA0042D87842EA006008BDA5
:4005800008B50A4B1B7803F0C003802B0CD10021064B19700220FFF75DFF28B100210220FFF758FFFFF708FF08BD00BFFA460040F8B5064601460320FFF74CFF01300702A1
:4005C00031460420FFF746FF074431460320FFF741FF013000020024254608E003785A1ED2B2FD2A00D801252344DCB20130B842F4D331460320FFF72DFF01300002C00826
:400600000F4B9F4201D0FF0808E04FF4004705E000F190431B782344DCB20130B842F7D36442E4B231460120FFF714FF844202D11DB90620F8BD0620F8BD0020F8BD00BF79
:40064000C0FF03002DE9F04FADF51F7D054600F0C5FB10B1002000F071FC00F0E1FA62B64FF0000A57460A24D0460DB9FF2300E02B460DF276224FF4967152A800F008FBD8
:400680000DB1013CE4B20CB10028EED1002840F08982BDF87632062B26D99DF84821012A24D19DF84B819DF84A2142EA0828414608F107029A421BD8B2F5967F1AD84A1DCD
:4006C00052AB9E5C0A1D9A5C42EA062606315B5C172B11D108F1040189B252A8FFF74CFE86420BD100260AE0042608E0042606E0032604E0032602E0042600E00826002EB5
:4007000040F0EB819DF84C919DF84921A2F13103142B00F2BA81DFE813F015007D00B801A5001301B80119012E01A5004001AA01B801B801B801B801B801B801B801B80150
:40074000B8012600002F00F0CA81B8F1000F40F0C9810020FFF72CFFB0FA80F040098DF84C01012217E2002F00F0BF81B8F1030F04D040F22313984540F0BA819DF84EB13A
:400780009DF84D3143EA0B2BB8F1030F06D0A8F103020DF24F1107A802F046F8A9F14003DBB23F2B08D80BF1806303F50063180110230193802309E0B9F1030F00F29B8132
:4007C0000BEB092318024FF4807301935B4500D80A26002E40F09281019A07A9FFF7DAFD0646002840F08C81B9F1030F00F28A81019B9A4540F2888109F510300BEB00204E
:40080000202207A90B4419464001FFF7C3FD06460022C0E1002F00F07981B8F1010F40F07881B9F1030F00F27781C14B1B681B68C3F30742914502D1C3F3072305E091451C
:4008400001D9002301E04FF480738DF84C311B0A8DF84D31FF238DF84E3100238DF84F31042298E1342A15D1002F00F05881B8F1030F40F05781A9F14003DBB23F2B02D8A0
:400880004FF0100A01E04FF4907A5246002107A801F0D5FF002F00F04881B8F1020F40F25181A8F103020DF24F1107AB03EB0A0001F0BAFFC2441FFA8AFAAAF1030A1FFA29
:4008C0008AFAA9F14003DBB23F2B05D800F00CFB80234FF0100803E04FF480734FF49078D04540F032819DF84EA19DF84D2142EA0A2A534500D80A26002E40F02B81B9F13B
:400900003F0F0FD80AEB092292B2894B1B681968C1F30F2311F0FF0F01D001339BB2934200F21A81434607AA5146484600F060FA00B10A2600F02CFB4FF0000A52462AE110
:40094000002F40F02D810426002224E1002F00F0088108EB0A03B3F5967F00F20581424653A907AB03EB0A0001F05EFFC2441FFA8AFA00220FE1B8F1000F40F0F88004ABFC
:400980006C4A92E8030083E8030053AA82E803004FF0000A01270822FDE0002F00F0EA80B8F1030F40F0E9809DF84EB19DF84D3143EA0B2BA9F14003DBB23F2B12D800F01F
:4009C00093FA4FEA0B11BBF17F0F01D8334600E00A23002B40F0D48010225748FFF722FD019011E00BEB09210902BBF1FF0F01D8334600E00A23002B40F0C5804FF480724C
:400A00000020FFF70FFD0190B9F13F0F0FD809F510320BEB02225201002306E0995C01980144C9B2019101339BB21F2BF6D9B9F1030F16D1BBF1FF0F13D100210520FFF777
:400A400009FDC0B2019BC0EB03095FFA89F900210620FFF7FFFCC0B2C0EB09095FFA89F30193019B5B428DF84C31012293E00020FFF79EFD10B98022304B1A7000F0DCF84A
:400A800000F05EFA0426002285E02D4B1B68002B7CD0002F7DD08DF80820ADF80A8053AA0392002104910591069204A902A89847BDF81420B2F5937F03D3069953AB9942D7
:400AC00005D0069B03B92AB99DF8106063E00E26002260E00E2600225DE000225BE00426002258E00426002255E00426002252E0042600224FE0092600224CE000224AE04C
:400B0000002248E0002246E0002244E00426002241E0042600223EE0042600223BE00426002238E00426002235E00426002232E0CC80FF1F7429000000800040FA46004035
:400B40006481FF1F0426002225E04FF0000A0326524620E000221EE04FF0000A0A26524619E00426002216E00326002213E00426002210E0042600220DE0042600220AE0C2
:400B80001E46002207E01E46002204E00526002201E00526002252A93046FFF719FC01E04FF0000A002D3FF460AD002F7FF45DAD0DF51F7DBDE8F08F38B50020FFF7F8FC6B
:400BC00008B1062400E00024134D2B681A6800210846FFF727FC6B681B78C01AC0B24042C0B2834202D12B681B6813B9002000F0A5F90A4B1B7803F0C003402B00D024B195
:400C00000020064B1870FFF71DFD1420FFF71AFDFFF7D4FB38BD00BFCC80FF1FFA46004008B562B60221002000F012FC0122014B1A7008BD6881FF1F08B500F04DFC08BD71
:400C400008B5012000F020FD08BD00BF70B50E46154603EB83035C00A4B240220146022000F0C8FC04E0012000F072F9013CA4B2022000F0A1FC08B9002CF4D1022000F026
:400C80009BFC10B12E80002070BD102070BD00BF2DE9F04180460E46174603EB83035C00A4B2402900D94026204B1B7833B916E0012000F04DF9013DADB200E0254600F02A
:400CC00065FC08B9002DF3D100F060FCA8B100F063FCFFF7B5FF0022144B1A700DE000F05BFC50B100F052FC38B1FFF7A9FF04E0012000F02DF9013CA4B2012000F05CFC27
:400D0000012801D0002CF3D1012000F055FC012807D13246414600F0CDFC38800020BDE8F08100233B801020BDE8F0816881FF1F10B500F07BF900F029FA10BB012000F07D
:400D400007FA072818D102210F4800F081F902280AD102E0012000F011F90C4B1B7813F0020FF7D0002409E0084B1B7813F0020FE9D04FF0FF3401E04FF0FF3400F02CFA14
:400D800000E00424204610BD7C81FF1F2247004010B500F04BF900F0F9F9D0B900F038FA0446072812D102E0012000F0E7F80A4B1B7813F0020FF7D0074B1B7813F0020FC4
:400DC00004D0054B1B789B0800D1002400F004FA00E00424204610BD2247004008B5FFF7D7FF034610B9FFF7A3FF0346184608BD2DE9F041441FE4B23A2C01D9002500E0AE
:400E0000012510F0800F00D00125412800D901253F2803D8B1F5807F06D808E0802900D90125102B02D102E0012500E0012502B90125002D50D1984616460F46044600F036
:400E4000A5F9002847D1434632463946204600F019F9064607283AD102E0012000F08EF81F4B1B7813F0020FF7D01D4B1B7813F0020F06D01A4B1B789B0805D04FF0FF360C
:400E800003E04FF0FF3600E02E4606BB154A537812783946204600F035F9072804D0064615E0012000F06AF80D4B1B7813F0020FF7D00B4B1B7813F0020F06D0084B1B78D9
:400EC0009B0804D04FF0FF3601E04FF0FF3600F083F9354600E004252846BDE8F08100BF224700407C81FF1F08B500F0ADF90F4A137843F0080313701032137843F00803B8
:400F00001370C8220A4B1A700A4A137843F0100313701032137843F010031370064B1B7813F0200FFAD000F093F908BDA043004001470040AC4300400047004001BE70472F
:400F4000024A137843F0010313707047F646004010B5044605E0084B186800F06DF9A4F50044B4F5004FF6D8034B586800FB04F000F062F910BD00BFD480FF1F08B5034B9C
:400F80001B7A00FB03F000F057F908BDD480FF1F08B500F059F900BF00BF00BF00BF00BF00BF00BF00BF00BF00BF00BF00BF00BF00BF00BF00BF064A13889BB243F00403D6
:400FC00013801388BFF36F8F00F042F908BD00BF0048004070B504460E46074B1D681F2802D90020FFF7AAFF04F01F04103455F8240045F8246070BD08ED00E038B504469B
:401000000D46072902D90020FFF798FF1F2C02D90020FFF793FF04F01F0000F1604000F564406D01EDB2057038BD00BF08B500F00BF9064A137843F008031370103213784A
:4010400043F00803137000F003F908BDA043004070B506460D4600240CE00120FFF78EFF064B1B7813F0010FF7D0054B1B7833550134E4B2AC42F3D3204670BD224700407F
:401080002047004070B41D4C247814F0020F2CD01B4CB6252570D5252570022525700234247814F0020F22D1154C2070002404E0165D134D2E700134A4B29C42F8D3B3F50D
:4010C000807F16D13F2816D800F5103001EB00214801002305E01A5CD2B209490A7001339BB21F2BF7D9072006E0042004E0092002E0072000E0072070BC704722470040E7
:401100002047004030B4104C247814F0020F15D00E4CB6252570D8252570052525700234247814F0020F0BD1084C2070080A2070C9B2217022702370072002E0042000E090
:40114000092030BC704700BF22470040204700400C4B1B7813F0020F0FD00B4BB6221A70E1221A700E221A7002331B7813F0020F05D1054B1870072070470420704709204C
:40118000704700BF224700402047004010B500F05BF80F4B1B78A3B901220D4B1A700D4B1B6813F0010F0ED00A4A136823F00103136000BF00BF00BF0122054B5A60002460
:4011C00002E0042400E0002400F042F8204610BD6C81FF1F0400084008B500F035F80A4B00221A705B68012B0AD1084A136843F00103136000BF00BF00BF0022024B5A60AB
:4012000000F026F808BD00BF6C81FF1F04000840074B1B7813F0020F08D0064BB6221A70E0221A700D221A70072070470420704722470040204700400230800803D000BFA7
:4012400001380046FCD17047EFF3108072B6704780F31088704700BFF8B5FFF7F5FF06463C4A137843F0010313701032137843F0010313700125384B1D700227943B1F70A7
:4012800002F5E2521B32137803F07F0313700020FFF774FE314C237803F0F9032370304A137803F0DF03137023782B4323702846FFF764FE2820FFF761FE2A4B1A7802F0BC
:4012C0007F021A701A7802F0BF021A7023783B4323703846FFF752FE237843F0040323700024214B1C7001331C703046FFF7B0FF07211720FFF782FE1C491720FFF76AFE76
:4013000007211820FFF77AFE19491820FFF762FE07211520FFF772FE16491520FFF75AFE07212046FFF76AFE13492046FFF752FE07212846FFF762FE10492846FFF74AFE65
:4013400007210C20FFF75AFE0D490C20FFF742FEF8BD00BFA54300409D6000409443004012600040F851004084600040E11B0000051A0000DD1B0000791B0000A91B000059
:40138000791E000010B5002304E00124234AD4542344DBB2002BF8D0214B18700023214A1370214A1370214A1370214A1370214A1370214A1370214A1370214B4FF40002DF
:4013C0001A604FF080721A604FF400121A6001221A6002221A6011B1012906D00BE0194A137803F0FE0313700AE0164A137843F00103137004E0134A137843F00103137097
:401400000322114B1A708022203B1A700120FFF713FF04220D4B1A7010BD00BF2082FF1F9481FF1F9A81FF1F9881FF1F9981FF1F9581FF1F8081FF1F9781FF1F1082FF1F89
:4014400000E100E009600040286000401260004038B504460D46064B1B7823B9FFF7FCFE0122034B1A7029462046FFF78BFF38BD7481FF1F002304E001210E4AD1540B4401
:40148000DBB2002BF8D000230B4A13700B4A13700B4A13700B4A13700B4A13700B4A13700B4A137003220B4B1A708022203B1A70704700BF2082FF1F9A81FF1F9881FF1F6F
:4014C0009981FF1F9581FF1F8081FF1F9781FF1F1082FF1F2860004008B5FFF7B5FE214A137803F07F0313700A32137803F0FB031370A2F5E3520D3A137803F0FE0313700F
:401500001032137803F0FE031370174B1A7842F080021A701A7842F040021A70FFF798FE124B4FF400021A604FF080721A604FF400121A6001221A6002221A6001F010F94E
:401540004FF480520A4B1A6000230A4A13700A4A13700A4A13700A4A13700A4A13700A4A137008BD08600040F851004080E100E080E200E09881FF1F9981FF1F9581FF1F3E
:401580008081FF1F9781FF1F7481FF1F014B1878704700BF9981FF1F064B1B7813F0FF0F05D0044B1878C0B200221A7070470020704700BF9881FF1F00EB40008300024AF4
:4015C00013445878704700BFA481FF1F431EDBB2072B0BD8064B00011A18185C00F00F00537843EA0020023880B2704700207047FC5F0040431EDBB2072B3CD8F0B407463F
:4016000000EB4004A3001C4C2344DB889BB2C3F500739A4208D900EB400293002344DA8892B2C2F5007292B200EB4004A300124C2344DB7843EA1223104D04012E192B55C2
:40164000D3B2737039B909E0CE5C3D010C4C665501339BB200E000239A42F5D8420002449300054A134400225A705A79D2B20001044B1A54F0BC7047A481FF1FFC5F00407C
:4016800078600040FE5F0040431EDBB2072B0BD8420002449300054A134400225A705A79D2B20001024B1A54704700BFA481FF1FFE5F004070B5D9B1054614460E46C8B13B
:4016C000082819D8FFF782FFA04203D22846FFF77DFF0446002305E02901094A525CF25401339BB2A342F7D32846FFF7CDFF04E0002402E0002400E00024204670BD00BF34
:40170000786000401D4B19781D4A13889BB20B449BB2138000220FE01A494B681B78DBB2194883544B6801334B600132D2B20B889BB2013B9BB20B80124B1B889BB20BB155
:40174000072AE9D90D4B1B78DBB2082B00D05AB10E490B7883F080030B700F210C4B197002210C4B197004E0022309490B7009490B70094B1A70014B1A7070471082FF1FD4
:401780001682FF1F8881FF1F006000409681FF1F8181FF1F9A81FF1F1182FF1F0222074B1A708022064B1A700F22064B1A700023054A1370054A1370012070479A81FF1F0C
:4017C0009681FF1F8181FF1F1082FF1F1182FF1F08B5FFF797FF08BD10B4194B197801F00F010239C9B2174A13889BB20B449BB21380002011E0144A5468144B1B5CDBB2AF
:4018000023705368013353600130C0B20139C9B213889BB2013B9BB213800B4B1B889BB20BB10029E7D10A4B19700A4A137883F0800313700B22084B1A7010BC704700BFB2
:40184000296000401682FF1F8881FF1F006000401182FF1F9681FF1F8181FF1F0623064A1370064A13708022054B1A700022054B1A700120704700BF9A81FF1F8181FF1FE5
:401880009681FF1F1182FF1F064B9B6843B1054B9A6810709A6804490988518000229A60704700BF8881FF1F1682FF1F08B5134B1A78D2B21A701B78DBB213F0800F02D0C9
:4018C0000F4A137008BD0220FFF7DEFF0D4B1B7803F06003202B05D0402B06D043B900F077FD06E000F044FF03E000F01BFF00E0002010B90322024B1A7008BD28600040F8
:401900008181FF1F0060004008B5094B1978094A13889BB20B449BB213800022064B1A700120FFF7B1FF0322044B1A7008BD00BF1082FF1F1682FF1F9A81FF1F8181FF1FD6
:4019400008B50B4B1B78DBB2042B06D0062B07D0022B0BD1FFF7D8FF08BDFFF73DFF08BD0320FFF791FF0322024B1A7008BD00BF9A81FF1F8181FF1F08B50022044B1A705B
:401980000120FFF781FF0322024B1A7008BD00BF9A81FF1F8181FF1F08B50B4B1B7813F0FF0F07D0084A137843F0800307490B70002313700022064B1A700120FFF764FFAE
:4019C0000322044B1A7008BD8081FF1F086000409A81FF1F8181FF1F08B5094B1B78DBB2042B06D0062B07D0022B07D1FFF7F0FE08BDFFF7C1FF08BDFFF7CEFF08BD00BF56
:401A00009A81FF1F08B5284B1B78DBB213F0100F48D013F0800F0CD003F00F03012B16D1FFF744FF214B1B7813F0800F11D1012312E013F0400F03D0FFF7CEFF01230BE0A4
:401A400013F0200F07D0FFF77BFF012304E0002302E0002300E0002323B3134B1B7813F0800F1FD1124B1B78124A12781343124A13701278D2B2934214D10C4B1B78DBB227
:401A8000094A127812F0800F07D1084B1B78DBB2054A1370137803F00F03044A1278D2B29342EAD108BD00BF286000408181FF1F9681FF1F1182FF1F296000400022064B91
:401AC0001A80064B9B682BB1044A916800230B7092685380704700BF1682FF1F8881FF1F08B50F4B1B889BB213B9FFF757FE15E002220C4B1A7000220B4B1A70FFF7DEFF2A
:401B00000A4AD179937943EA0123054A128892B2934201D2024A1380FFF7F4FD012008BD8881FF1F9A81FF1F9681FF1F0060004008B504220B4B1A7080220B4B1A70FFF7B9
:401B4000BDFF0A4AD179937943EA0123084A128892B2934201D2064A13800B22054B1A70012008BD9A81FF1F9681FF1F006000408881FF1F8181FF1F0122094B1A700F3B66
:401B80009B7C084B1B7B03F00303934204D0054AD37B83F08003D3730122024B5A7370470B600040A481FF1F02220A4B1A700F3B93F82230084B1B7E03F00303012B04D0B9
:401BC000054AD37E83F08003D3760122024B5A76704700BF0B600040A481FF1F704700BF08B5FFF747FC08BD08B50C4B18780138C0B200F097F90A4B1B79DBB29A1C00EB4B
:401C0000C20042680749CB5C02EBC3035B68596A0B78054A1380516008BD00BF9981FF1F006000408481FF1F8881FF1F08B50E4B18780138C0B200F075F90C4B1B79DBB2A5
:401C40009A1C00EBC20042680949CB5C02EBC3035B68DB69597813F8022B42EA012205490A804B6008BD00BF9981FF1F006000408481FF1F8881FF1F10B50022194B1A80BE
:401C8000194B18780138C0B200F04CF9174AD3781279D2B2911C00EBC10041680ABBDBB21348825C01EBC20149685A1ED2B2022A17D803F10053013B01EBC3000B4A927800
:401CC000D2B211F833309A420BD8406802EB4202910042185468034B5C60415A198092689A6010BD8881FF1F9981FF1F006000408481FF1F08B55B4B1A79D2B21B7813F084
:401D0000800F4DD0574B5B78013B052B00F28D80DFE803F0212B3B8B8B03524BDB78DBB2212B09D1FFF760FF4F4B1B889BB2002B7DD0FFF7D5FE08BD4A4BDB78DBB2222B73
:401D400077D1FFF773FF484B1B889BB2002B72D0FFF7C6FE08BDFFF78FFF434B1B889BB2002B6AD0FFF7BCFE08BD002A67D13D4B9B7813F0FF0F64D13B4901230B803B4B6C
:401D80001A444A60FFF7ACFE08BD002A5BD1364901230B80364B1A444A60FFF7A1FE08BD304B5B78DBB20A2B0DD00B2B2FD0092B4BD1FFF761FF2C4B1B889BB2002B46D0DF
:401DC000FFF7B6FE08BD002A43D1264B9B7813F0FF0F40D1234BDB78DBB224498B54895CC9B2244B9B5CDBB2994203D20021214B995409E01F4B9B5CDBB2012B04D91B4B33
:401E00009B5CDBB21B498B54FFF728FD08BD22BB144B9B78DBB2012B21D8124B9B78DBB213498B54FFF71AFD08BD002008BD002008BD002008BD002008BD002008BD002057
:401E400008BD002008BD002008BD002008BD002008BD002008BD002008BD002008BD002008BD00BF006000408881FF1F1882FF1F2082FF1F1C82FF1F08B500F071FC08BDDC
:401E800010B401233EE019461A010C242148845403EB4300820020480244527912F0FF0F13D003EB430082001B480244127912F0800F04D01801194A024494700AE01801FD
:401EC000164A02440820907004E01801134A0244802090704800084482000F480244D488E4B208010B4901448C71D088C0F30720C871D088C0B20871D288C2F307224A71EF
:401F00000133DBB2082BBED9FF22054B1A7010BC704700BF70600040A481FF1FFC5F00400A600040074B1A78074B03EBC2035B681A7C824204D9C0001030184440687047A3
:401F4000002070479481FF1FB8290000F8B5404B1B7813F0FF0F79D03D4B18780138C0B2FFF7E0FF047AC2683A4B1878C0B200236AE01178884264D13749095CC9B2557868
:401F8000A9425ED1917801F07F01D67806F00306DFF8C8E04D000D44AF000EEB07054FF0000C85F803C092F802C085F804C092F803C00EF807C097882F8192F90250002D64
:401FC0000DDA012E01D1072700E00D274E000E44B500224E35446F7101266E700CE0012E01D1052700E009274E000E44B5001B4E35446F7100266E70DFF868E00F010EEB28
:4020000007060125B57001FA05F529448D00134929440D89C5F307250EF807500D89EDB27570CE88F6B20E4D3D44AE71CE88C6F30726EE71CE88F6B22E71C988C1F3072141
:40204000697108320133DBB2A34292D3F8BD00BF9981FF1F9581FF1F8481FF1FA481FF1F70600040FC5F0040034B1A78034B03EBC2035868704700BF9481FF1FB829000025
:4020800008B5084B18780138C0B2FFF74BFF30B142681279023200EBC203586808BD002008BD00BF9981FF1F2DE9F041002310E06A4D5900CA189600AC190022AA55A27060
:4020C000E2702281A272627034462C4462710133DBB2082BECD940B90AE000226049CA546049CA540133DBB200E00023002BF4D05D4B1B7813F0FF0F00F0AD805A4B1878AB
:402100000138C0B2FFF70EFF4368DB7913F0400F05D0564A137843F00103137004E0534A137803F0FE031370057A012464E0C16800235DE08A7802F07F02944255D1264615
:4021400004EB4407BA00454F3A44128992B28F88BA4207D204EB440E4FEA8E02DFF8FCE0724417810A783E4FBA5CD2B24F78BA423BD191F802C0DFF8E4E0720032449700A6
:402180000EEB070282F804C0CA780EF80720CA7802F0030291F90270002F13DA012A02D14FF0070801E04FF00D08DFF8B0E0720002EB060C4FEA8C07774487F80580012614
:4021C0007E7012E0012A02D14FF0050801E04FF00908DFF888E0720002EB060C4FEA8C07774487F8058000267E7008310133DBB2AB429FD30134E4B2082C98D9C068002222
:402200000CE0837803F07F0310F8084B03EB43039900124B19448C720132D2B2AA42F0D3FFF72EFF124B1860002301210FE00B4D4A00501884002C44E380228992B2134429
:402240009BB203F0010213449BB20131C9B20829EDD9FFF715FEBDE8F08100BFA481FF1F8481FF1F1482FF1F9981FF1F9781FF1FA081FF1F08B5154B1B7903F07F035A1E90
:40228000D2B2072A20D8590019448A0010490A44917841F0010191700021D170517841F002015170127912F0800F05D01B01094A1A448D23937004E01B01064A1A44892362
:4022C0009370FFF7CBFA08BD002008BD00600040A481FF1FFC5F0040274B1B7903F07F035A1ED2B2072A44D810B5590019448A0022490A44917801F0FE0191700021D1701A
:402300001F4C1801215C01F07F012154517801F0FD015170127912F0800F13D003EB43018A0016490A445278D2B2012A04D1224602440C23937019E01B01114A1A440D23A9
:40234000937013E003EB43018A000C490A445278D2B2012A05D11B01094A1A440823937004E01B01064A1A4409239370FFF776FA10BD0020704700BF00600040A481FF1F35
:40238000FC5F004010B50E4B1C79E4B20D4B18780138C0B2FFF7C6FD43681B799C4201D9012C0AD8084A135DDBB208490B55044B9B78DBB21355012010BD002010BD00BFF6
:4023C000006000409981FF1F8481FF1F1482FF1F10B5944B1B78DBB20021934A118013F0800F00F0AF808F4A5278D2B20A2A00F27581DFE812F06B007301730173017301E3
:4024000073010B007301940073019C00854BDB78DBB2012B09D1FFF727FE4268824B5A6012221A80FFF75CFB10BD7E4BDB78DBB2022B13D17B4B9878FFF774FD002800F00C
:402440004F814268784B5A605A68D1785A68927842EA01221A80FFF743FB10BD714BDB78DBB2032B05D02EE00A7811440133DBB201E000236D496B4A9278D2B2934203D2B8
:402480000A7812F0FF0FEFD1664B9B78DBB2EE2B00D16749634B9B7813F0FF0F07D0614B9B78DBB2634A127C934200D162490B7813F0FF0F00F016810B785B4A13805160D7
:4024C000FFF70EFB10BD00F053F910BD13F0030317D0022B40F0088153490B80514B1B7903F07F0303EB43039A00544B1A449278D2B2534B1A7000225A704B60FFF7F0FA6D
:4025000010BD494902230B804E4B1A78D2B24C4B1A7000225A704B60FFF7E2FA10BD424B01221A80484A5A60FFF7DAFA10BD3E4A012313803B4B1B7944490B445360FFF77B
:40254000CFFA10BD374A5278013A0A2A00F2CE80DFE812F04C00CC009700CC000B00CC00CC00CC001300CC0030002E4B9B78DBB2374A1370FFF772F910BD2A4B9B7803F043
:40258000FF041BB1601EC0B2FFF7CCFC04B110B9002C40F0AD802C4B1B78DBB29C4206D0294B1C7001202B4B1870FFF77DFDFFF755F910BDFFF7E6FE002800F09B80194A3C
:4025C0001379DBB21279D2B223490A70234AD25CD2B21E49CB5CDBB29A4204D001221D4B1A70FFF7B3FCFFF739F910BD03F00303012B35D04BB1022B7ED10A4B9B7813F027
:40260000FF0F7BD1FFF768FE10BD064B9B78DBB2012B75D10B4A137803F0FD031370FFF71DF910BD006000408881FF1F882A0000A4290000082B00007C2A0000A481FF1F23
:402640007881FF1F9781FF1F9981FF1F8481FF1F8081FF1F9881FF1F9581FF1F1482FF1F2D4B1B7913F0FF0F4CD12B4B98781B79DBB22A49CA5C22EA0002CA54FFF7EEF8F2
:4026800010BD03F00303012B17D04BB1022B3BD1214B9B7813F0FF0F38D1FFF7EBFD10BD1D4B9B78DBB2012B32D11D4A137843F002031370FFF7D2F810BD174B1B7913F05E
:4026C000FF0F27D1144B98781B79DBB21349CA5C22EA0002CA54FFF7C1F810BD002010BD002010BD002010BD002010BD002010BD002010BD002010BD002010BD002010BDC5
:40270000002010BD002010BD002010BD002010BD002010BD002010BD006000409C81FF1F9781FF1F08B50B4B1B7813F0800F0CD0084B5B78DBB2012B09D1074B074A5A60D0
:4027400012781A80FFF7CCF908BD002008BD002008BD00BF006000408881FF1F7C290000024B1878C0F38010704700BF8F45004008B5144B1B7803F00303012B02D0022B43
:4027800004D00FE00F4B1B79DBB20CE00D4B1B7903F07F0303EB43039A000B4B1A44937ADBB200E00023012B07D8084A1268D35C032B04D1FFF79EFA08BD002008BD00200E
:4027C00008BD00BF00600040A481FF1FA081FF1F014B1868704700BF4481FF1F0E4B70B51E460E4C0025E41AA410A54204D056F8253098470135F8E700F090F9084B094C88
:402800001E46E41AA4100025A54204D056F8253098470135F8E770BD282B0000282B0000282B0000302B000010B5431E0A44914204D011F8014B03F8014FF8E710BD0346DA
:402840000244934202D003F8011BFAE770470000002C00006400000000000000005100402000305100404000C0510040100000000140001000140140000800400140000AE0
:40288000004C014000020050014020007E0210027C40B4408601A601B001B820C020C105C501C720C821C9FFCAFFCBFFCDA0CF04D018D804DA04DF01E040E2C0E440E5407B
:4028C000E6C0E8C0EAC0ECC0EEC0000410201844400448225002C004C404D004D208EE0AEE0A33803640CC30A640A780A640A780A640A7805704D402B704E80208080F404B
:40290000C20CAE40AF80EE50AC08AF4000010E01000A00000145004002520040010B01401B0C01400A0D0140011701400119014003400140024101400242014002430140C3
:4029400002450140024601400347014003480140024C014002500140015101404000000000000000C00000000600000602000200000000006910162E003C01012800000047
:4029800000010400010000000000000000014359555342000000303030303100000000000000000012034D005300460054003100300030000100000001000000C0290000CE
:4029C00001000000082B0000000000000000000001000000D829000001000000DC2A000002000000FC290000010000000C2A000000000000F8290000030000000000010314
:402A000040000300000082034000030001000000142A000000000000482A0000000000003C2A0000000000000000000001000000542A000001000000EE2A0000410000009B
:402A40006C82FF1FB082FF1F410000002882FF1F2482FF1F240005010900A1000900A1000900150025FF7508954091020900150025FF750895408102C0C000000A033000B4
:402A80003000300031000000040309042C0343007900700072006500730073002000530065006D00690063006F006E0064007500630074006F0072002203500053006F00A3
:402AC00043003300200042006F006F0074006C006F006100640065007200000009022900010102800A0904000002030000020921110100012224000705010340000107057F
:402B000082034000010000001201000200000008B4041DB70130010280014300F8B500BFF8BC08BC9E4670475100000001030000F8B500BFF8BC08BC9E4670472D000000AE
:402B4000502B0000C880FF1F80000000700100000000000050280000542800000000C05D80BB000030000000006CDC020000000000000000000000000000000000000000BD
:402B80000000000000000000000000001A2B0000000000000000000000000000000000000000000000000000000000000000000000000000000000000000000000000000D0
:402BC000000000000000000000000000E480FF1F00000000000000000000000000000000000000000000000000000000000000000000000000000000000000000000000053
:402C00000000000000000000000000000000000000000000000000000000000000000000000000000000000000000000000000000000000000000000000000000000000094
:402C40000000000000000000000000000000000000000000000000000000000000000000000000000000000000000000000000000000000000000000000000000000000054
:402C80000000000000000000000000000000000000000000000000000000000000000000000000000000000000000000000000000000000000000000000000000000000014
:402CC00000000000000000000000000000000000000000000000000000000000000000000000000000000000000000000000000000000000000000000000000000000000D4
:020000040003F7
:40FFC00000000000000000000000000000000000000000000100010000000000000000000000000000000000000000000000000000000000000000000000000000000000FF
:0200000480007A
:4000000000000000000000000000000000000000000000000000000000000000000000000000000000000000000000000000000000000000000000000000000000000000C0
:400040000000000000000000000000000000000000000000000000000000000000000000000000000000000000000000000000000000000000000000000000000000000080
:400080000000000000000000000000000000000000000000000000000000000000000000000000000000000000000000000000000000000000000000000000000000000040
:4000C0000000000000000000000000000000000000000000000000000000000000000000000000000000000000000000000000000000000000000000000000000000000000
:0200000490006A
:0400000000004007B5
:0200000490105A
:04000000BC90ACAF55
:0200000490303A
:02000000E90213
:0200000490402A
:4000000000000000000000000000000000000000000000000000000000000000000000000000000000000000000000000000000000000000000000000000000000000000C0
:400040000000000000000000000000000000000000000000000000000000000000000000000000000000000000000000000000000000000000000000000000000000000080
:400080000000000000000000000000000000000000000000000000000000000000000000000000000000000000000000000000000000000000000000000000000000000040
:4000C0000000000000000000000000000000000000000000000000000000000000000000000000000000000000000000000000000000000000000000000000000000000000
:0200000490501A
:0C00000000012E16106900012E25F96B7E
:00000001FF